:100000000C94D8060C9409070C9409070C94090762
:100010000C9409070C9409070C9409070C94090720
:100020000C9409070C9409070C9409070C94090710
:100030000C9409070C9409070C9409070C94090700
:100040000C9409070C9409070C9409070C940907F0
:100050000C9409070C9409070C9409070C944D079C
:100060000C9409070C946C1B0C94941A0C940907BB
:100070000C9409070C9409070C9409070C940907C0
:100080000C9409070C9409070C9409070C940907B0
:100090000C94391B0C94551A0C9409070C940907FD
:1000A0000C9409070C9409070C9409070C94090790
:1000B0000C9409070C9409070C9409070C94090780
:1000C0000C9409070C9409070C9409070C94061B5F
:1000D0000C94161A0C9409070C94D31A0C94D71983
:1000E0000C9409070C948B160C94B0140C94DA142D
:1000F0000C949D140C9497160C949D170C94060860
:100100000C945B170C947B160C94C8170C94E41792
:100110000C9439150C94EF0F0C94A8170C940B0742
:100120000C94AA160C940E180C9497070C94A31612
:100130000C947A160C9469110C94C0070C948A24C0
:1001400011007F96290001007F9628003A0155C0D2
:10015000021010C10141C50400228040360168B080
:100160000100B102B011B40102B60302023BB701B3
:10017000C63A0155F704A9512C82C0020D0DC102E7
:100180004300C20100C50400480048B40100B603A2
:1001900002023BE00F0F211C0B0E08499838091191
:1001A00003141000E10F0F2F2B0C0E0647763707B4
:1001B0001104231E00B00100B30402000000B401CA
:1001C00000D003074218D103000710D2020102D366
:1001D000020102D4020102C005123B000211C10358
:1001E000101088C50103C60102C80C00323645064E
:1001F00016377577540C00CC0100F603010100CFCF
:1002000003008130ED0464031281E803851078CB8C
:1002100005392C003402F70120EA020000B0010089
:10022000B102001BB40100C00121C10111C5023F90
:100230003CC701B5360148F20100260101E00F0F6D
:1002400026240B0E0954A8460C17090F0700E10FCE
:1002500000191B0410072A473903060630380F36E9
:100260000100B80101C0010EB00100C1041010026C
:1002700002C006003500000102C50104D2020104DB
:10028000CA0100EA0180B903FF83577F967F96B6C3
:100290000125C0065050013C1E08B4070240002A48
:1002A0002A0D787F01F20B161603080808081004BF
:1002B0001616FD03110235B2050C0C003333B701DD
:1002C00035BB012BC00104C20201FFC30111C401EF
:1002D00020C6010FD002A4A1E00ED000050E150D1E
:1002E0003743470915121619E10ED000050D0C060B
:1002F0002D44400E1C1816193A01557F0AB001030F
:10030000E2013FC00122E20100B00100C0010AB0D9
:1003100001000000000000000000000000000000DC
:100320000000FFFF0F00000400620800080800033F
:10033000000C01030B5A0203060903031710040300
:10034000002305030017060309630703090C0803CC
:100350000C100903322210001600110001011200D6
:100360000000130001000001300301013702030106
:10037000000D800200610201B0C1FFFF32000100E8
:1003800000010200000103003010090001000C0010
:100390000000900000800F00000010020000110219
:1003A000EF001202000013028F010005000001059A
:1003B000000002055F000104010004040000FFFFCB
:1003C000320007000001FFFF3200000200000102BE
:1003D000000000000000000000000000000000001D
:1003E0000100A4000100FFFF0A00600000270800D0
:1003F00008083000140231001537320004063300BB
:10040000160E34001122350000153600078537001E
:100410000714380003143900200090001500100064
:10042000100411003702290046002A004600070088
:1004300000001200890113000011FFFF9600120056
:10044000B9010100000102000002030030100900A0
:1004500001000A0000000D0000000E0030006100E5
:1004600001006A000000800000008100000082009E
:100470005F009200000193000107FFFF500007009A
:100480000001E500F0780100000102000002030015
:1004900030100400000005000000080007020900F9
:1004A00000000A0000000C0000000D0000000F001A
:1004B00000001000000011000700120000001300EF
:1004C000000007000100FFFFC80010009016110097
:1004D0002702FFFF320012000D00FFFF3200130061
:1004E000001229000A002B000D00FFFF320020003F
:1004F0000000210000003000000031000404320040
:1005000003003500050436000808370007043800EA
:100510000303390007073C0004053D00080860009C
:100520000027610001006A000000800000008100D7
:1005300000008200000083000000840000008500AD
:100540000000900010009200000007003301E50059
:10055000008000000100010000010200000703000C
:1005600030100400000008000202090000000A0028
:1005700000000C0000000D0000000F000000100043
:100580000000110007001200000013000000FFFF30
:1005900032001000B01711000700FFFF0A00120020
:1005A0003A01FFFF0A001300001A29000C00FFFFA8
:1005B0000A0030000000310005053200040035005B
:1005C0000600360007073700050138000200390031
:1005D00007073C0004073D000708600000A7610012
:1005E00001006A00000021000000200000008000DF
:1005F00000008100000082000000830000008400F1
:1006000000008500000090001000920000009300A0
:1006100003009500100197000000980000000700FB
:100620007301FFFF3200FF000100F300080000002B
:100630000100010000010200000703003010080063
:100640000203090000001000000011000700120062
:10065000000013000000FFFF32001000B014FFFF85
:100660000A0011000700FFFF0A0012008E001300AD
:10067000000C29001500FFFF0A00300000003100C7
:100680000701320000003500030236000204370083
:10069000000038000702390000003C0003023D0062
:1006A0000304600000A7610001009000290007001A
:1006B0003301FFFF3200150030009A0010001100D6
:1006C0002000100028341200020013003810FFFF31
:1006D000280012001200FFFF280010002034130031
:1006E0004530FFFF460030000000310002043200B8
:1006F000070333000403340004003500010436000E
:1007000007073700050338001006390010060100FE
:1007100000010200000303003010080008080A006E
:100720000800600000276100010090003E01920077
:10073000000193000001A0000030A300100007009A
:100740000100070021000700230007003300070015
:10075000330111001A001200213113006C00140043
:10076000494210000008FFFF0A0011001A01FFFFB4
:100770000A0011001A03FFFF0A0011001A07FFFF09
:100780000A0011001A0FFFFF0A0011003A0FFFFFC5
:100790001E000100280102000001030030100700C4
:1007A0001210080003030B0000110C0000000F00E2
:1007B00001181500200050000101510003065200ED
:1007C00008045300000054000506550006045600B6
:1007D00003035700030358001000590000100700DE
:1007E0001200FFFF28000700130007001700000099
:1007F0000000003E5B4F5B3E3E6B4F6B3E1C3E7C01
:100800003E1C183C7E3C181C577D571C1C5E7F5EAE
:100810001C00183C1800FFE7C3E7FF00182418006D
:10082000FFE7DBE7FF30483A060E26297929264004
:100830007F050507407F05253F5A3CE73C5A7F3E30
:100840001C1C08081C1C3E7F14227F22145F5F00C2
:100850005F5F06097F017F006689956A606060605E
:100860006094A2FFA29408047E040810207E201049
:1008700008082A1C08081C2A08081E101010100C52
:100880001E0C1E0C30383E3830060E3E0E060000A0
:1008900000000000005F00000007000700147F1444
:1008A0007F14242A7F2A12231308646236495620B3
:1008B000500008070300001C2241000041221C00D8
:1008C0002A1C7F1C2A08083E080800807030000897
:1008D00008080808000060600020100804023E516B
:1008E00049453E00427F40007249494946214149FD
:1008F0004D331814127F1027454545393C4A494964
:100900003141211109073649494936464949291ECD
:1009100000001400000040340000000814224114BC
:1009200014141414004122140802015909063E410E
:100930005D594E7C1211127C7F494949363E414136
:1009400041227F4141413E7F494949417F0909098F
:10095000013E414151737F0808087F00417F4100FB
:100960002040413F017F081422417F404040407FAA
:10097000021C027F7F0408107F3E4141413E7F09F7
:100980000909063E4151215E7F0919294626494938
:10099000493203017F01033F4040403F1F20402078
:1009A0001F3F4038403F6314081463030478040376
:1009B0006159494D43007F41414102040810200024
:1009C0004141417F04020102044040404040000395
:1009D00007080020545478407F2844443838444461
:1009E0004428384444287F385454541800087E0959
:1009F0000218A4A49C787F0804047800447D400079
:100A00002040403D007F1028440000417F40007C92
:100A1000047804787C080404783844444438FC188A
:100A200024241818242418FC7C080404084854546E
:100A3000542404043F44243C4040207C1C2040209B
:100A40001C3C4030403C44281028444C9090907C02
:100A50004464544C44000836410000007700000014
:100A60004136080002010204023C2623263C1EA156
:100A7000A161123A4040207A3854545559215555B5
:100A80007941225454784221555478402054557964
:100A9000400C1E52721239555555593954545459F7
:100AA00039555454580000457C410002457D4200B0
:100AB00001457C407D1211127DF0282528F07C54E0
:100AC0005545002054547C547C0A097F49324949D9
:100AD00049323A4444443A324A4848303A41412142
:100AE0007A3A42402078009DA0A07D3D4242423D9E
:100AF0003D4040403D3C24FF2424487E4943662B32
:100B00002FFC2F2BFF0929F620C0887E09032054D3
:100B10005479410000447D413048484A32384040D1
:100B2000227A007A0A0A727D0D19317D2629292F31
:100B300028262929292630484D4020380808080849
:100B400008080808382F10C8ACBA2F102834FA004B
:100B5000007B000008142A142222142A14085500CD
:100B6000550055AA55AA55AAFF55FF55FF0000008C
:100B7000FF00101010FF00141414FF001010FF00ED
:100B8000FF1010F010F0141414FC001414F700FF00
:100B90000000FF00FF1414F404FC141417101F10BD
:100BA000101F101F1414141F00101010F00000006C
:100BB000001F101010101F10101010F01000000077
:100BC000FF101010101010101010FF10000000FF88
:100BD000140000FF00FF00001F10170000FC04F4C9
:100BE00014141710171414F404F40000FF00F71481
:100BF000141414141414F700F71414141714101008
:100C00001F101F141414F4141010F010F000001F23
:100C1000101F0000001F14000000FC140000F01062
:100C2000F01010FF10FF141414FF141010101F0008
:100C3000000000F010FFFFFFFFFFF0F0F0F0F0FF0A
:100C4000FFFF0000000000FFFF0F0F0F0F0F3844E1
:100C5000443844FC4A4A4A347E02020606027E02B6
:100C60007E0263554941633844443C04407E201E63
:100C70002006027E020299A5E7A5991C2A492A1C92
:100C80004C7201724C304A4D4D303048784830BC7F
:100C9000625A463D3E494949007E0101017E2A2AA9
:100CA0002A2A2A44445F444440514A444040444A2A
:100CB00051400000FF0103E080FF000008086B6B5B
:100CC000083612362436060F090F060000181800E1
:100CD00000001010003040FF0101001F01011E0044
:100CE000191D1712003C3C3C3C00000000000102B2
:100CF000102020080810204010204080020102012E
:100D000008040201010204081020408080402010E5
:100D1000080402018004020180402010080402013E
:100D200008040201010204081020408001020408A6
:100D30001020408000002200250028002B002E00FB
:100D40003100340002010000050108010B01050516
:100D50000505070508080808020202020A0A080831
:100D6000040404040101010101010101030303035F
:100D700003030303040707070C0C0C0C0C0C0C0CEE
:100D80000202020206060606060606060B0B0B0BFF
:100D90000B0B0B0B00002100240027002A002D0064
:100DA0003000330001010000040107010A018A2418
:100DB00011241FBECFEFD1E2DEBFCDBF00E00CBFDC
:100DC00012E0A0E0B2E0E8EDF0E500E00BBF02C009
:100DD00007900D92AC33B107D9F725E0ACE3B2E050
:100DE00001C01D92AC33B207E1F716E0C8EDD6E0C2
:100DF00000E006C021970109802FFE010E946228B1
:100E0000C73DD10780E00807A9F70E94011C0C9498
:100E1000EC250C940000EF92FF920F931F93DC01DE
:100E20001A960D911C911B9718962D913C9119972C
:100E3000ED91FC91048CF58DE02D7B0140E050E0BC
:100E400060E070E019951F910F91FF90EF90089569
:100E50003FB7F8948091450290914602A0914702D5
:100E6000B091480226B5A89B05C02F3F19F0019606
:100E7000A11DB11D3FBFBA2FA92F982F8827820F20
:100E8000911DA11DB11DBC01CD0142E0660F771F70
:100E9000881F991F4A95D1F708951F920F920FB698
:100EA0000F9211242F933F938F939F93AF93BF93F0
:100EB0008091410290914202A0914302B09144027C
:100EC0003091400223E0230F2D3720F40196A11D1D
:100ED000B11D05C026E8230F0296A11DB11D209368
:100EE00040028093410290934202A0934302B09348
:100EF00044028091450290914602A0914702B09130
:100F000048020196A11DB11D8093450290934602AF
:100F1000A0934702B0934802BF91AF919F918F91E8
:100F20003F912F910F900FBE0F901F901895CF9269
:100F3000DF92EF92FF920F931F93CF93DF936C0199
:100F4000EB017B01E40EF51E00E010E0CE15DF059D
:100F500061F06991D601ED91FC910190F081E02D55
:100F6000C6011995080F191FF1CFC801DF91CF9164
:100F70001F910F91FF90EF90DF90CF90089508950B
:100F8000FC01848D958D292F22952F7030E02170E2
:100F90003327A9014627BA0171A360A380FF0CC0C3
:100FA000672B19F480E290E002C081E290E040E01B
:100FB00050E060E00C94C90D868D978D833957E71A
:100FC0009507E1F040F4843541E0940779F08032F0
:100FD0009445C1F413C0863223E9920779F0893031
:100FE00045EB940759F08532924961F4660F771FFB
:100FF000660F771F636187E090E006C0626081E062
:1010000094E002C081E690E00C94E418AF92BF92A5
:10101000CF92DF92EF92FF920F931F93CF93DF93C4
:10102000EC0180914902882349F0C7018F7199270B
:10103000880F991FE1ECEE22E82AF92A37FF05C054
:10104000620F731F319521953109260F371F77FFE6
:1010500002C060E070E0E885F9852E173F070CF4C8
:10106000F9015F01A61AB70A17FF05C0400F511F0B
:10107000119501951109CA01800F911F57FF02C0F8
:1010800040E050E00A851B85801791070CF48C0125
:101090006801C41AD50A015011099F012150310974
:1010A000CE010E94200F8B988A988AA59BA520913B
:1010B0000201277820930201A5982EB1277C2EB932
:1010C00060910201292F3327A9014370552705E0BC
:1010D000440F551F0A95E1F7462B409302016EB16C
:1010E000A9014C705527440F551F440F551F462B1F
:1010F0004EB964B3A90140715527440F551F462BC3
:1011000044BB6EB1A9014072552755954795559539
:101110004795462B4EB940910201207C3327A3E02E
:1011200035952795AA95E1F7242B209302018998FC
:10113000899A20910201277820930201A5982EB167
:10114000277C2EB9409102019C0123703327B5E022
:10115000220F331FBA95E1F7242B209302014EB1E1
:101160009C012C703327220F331F220F331F242B97
:101170002EB944B39C0120713327220F331F242B37
:1011800024BB4EB19C0120723327359527953595A8
:101190002795242B2EB920910201807C992763E0AA
:1011A000959587956A95E1F7822B8093020189983E
:1011B000899A8A9AAC14BD042CF49A2D8B2D560171
:1011C000C92ED82E8F2D99279C0123703327229565
:1011D000220F207EAC014C705527342F330F330F74
:1011E000AC0140715527440FBC0176956795769503
:1011F0006795562F587063E0969587956A95E1F745
:101200008871B70163707727962F9295990F907E1A
:10121000B7016C707727660F660FF701E071FF2743
:101220007E2F770FD701B695A795B695A795A8708D
:10123000F701B3E0F695E795BA95E1F71E2F18711F
:101240001C141D040CF043C0F501B0910201B778E5
:10125000B0930201A598BEB1B77CBEB9B0910201AE
:10126000B22BB0930201BEB1B32BBEB9B4B3B42B51
:10127000B4BBBEB1B52BBEB9B0910201B82BB093CF
:1012800002018998899AB0910201B778B09302015E
:10129000A598BEB1B77CBEB9B0910201B92BB0938D
:1012A0000201BEB1B62BBEB9B4B3B72BB4BBBEB14D
:1012B000BA2BBEB9B0910201B12BB093020189984B
:1012C000899A319711F6E1E0CE1AD108B9CF8B9AFD
:1012D0008C8D80FF08C08E8D9F8D8632954191F454
:1012E0008D8980FF0FC00A851B8501501109288553
:1012F00039852150310940E050E060E070E0CE01D6
:101300000E94200FDF91CF911F910F91FF90EF90DE
:10131000DF90CF90BF90AF90089581E08093D50487
:10132000E1E0F1E08081886780839D9A8DB18863D8
:101330008DB9809A819A829A839A849A8B9A889A94
:10134000899A8C9A62E370E080E090E00E94DB1B57
:101350008C9864E670E080E090E00E94DB1B8C9A41
:1013600064E670E080E090E00E94DB1B60E070E0EB
:1013700080EB90E00C94E4180F931F93CF93DF93CE
:10138000EC01162F8091D504811102C00E948D09B5
:101390008B988A9880910201877880930201A598A2
:1013A0008EB1877C8EB9409102018D2F99279C01C7
:1013B0002370332755E0220F331F5A95E1F7242B72
:1013C000209302014EB19C012C703327220F331F52
:1013D000220F331F242B2EB944B39C0120713327D5
:1013E000220F331F242B24BB4EB19C0120723327C4
:1013F0003595279535952795242B2EB920910201F7
:10140000807C9927F3E095958795FA95E1F7822BF3
:10141000809302018998899A80910201877880934C
:101420000201A5988EB1877C8EB920910201CE0170
:1014300083709927A5E0880F991FAA95E1F7822B61
:10144000809302012EB1CE018C709927880F991FCD
:10145000880F991F822B8EB924B3CE0180719927F2
:10146000880F991F822B84BB2EB1CE0180729927E1
:101470009595879595958795822B8EB980910201D8
:10148000C07CDD2743E0D595C7954A95E1F7C82B89
:10149000C09302018998899A8A9A8091010187787C
:1014A000809301019D988DB1877C8DB961E070E0DA
:1014B00080E090E00E94DB1B889A88988898889842
:1014C000609100018CB1A2B34CB100910001889AE7
:1014D000889A889888988898E0910001FCB132B386
:1014E0002CB1C0910001889A115017FFE5CF889A5E
:1014F0008B9A909101019867909301019D9A9DB1FB
:1015000098639DB9487050E0440F551F440F551F14
:10151000087198E0099F80011124402B512BA07283
:10152000B0E0B595A7954A2B5B2B807390E095951D
:10153000879595958795482B592B607670E0B5E097
:1015400075956795BA95E1F7462B572B542F44278D
:101550002870220F220F8C2F887198E0899FE0015C
:1015600011249C2F922B3072232F30E03595279534
:10157000292B9F2F907396959695922B2E2F207640
:10158000229526952770292BCA01822BDF91CF91B6
:101590001F910F910895FF920F931F93CF93DF93A5
:1015A000EC0160E00E94BC098C0161E0CE010E9468
:1015B000BC09F82E62E0CE010E94BC0920E030E0B8
:1015C000302F22271127002740E050E05F2D60E0F8
:1015D00070E0042B152B262B372B492F50E060E0B1
:1015E00070E0CB01BA01602B712B822B932BDF9122
:1015F000CF911F910F91FF9008950F931F93CF9359
:10160000DF938C0160E00E94BC09EC0161E0C8013D
:101610000E94BC09AC01CE01A0E0B0E0DC0199273A
:10162000882760E070E08C019D01042B152B262B90
:10163000372BC901B801DF91CF911F910F91089508
:101640002F923F924F925F926F927F928F929F92D2
:10165000AF92BF92CF92DF92EF92FF920F931F93C0
:10166000CF93DF93CDB7DEB76B970FB6F894DEBF9D
:101670000FBECDBF9B8F8A8F5B011A01D22E1F83B5
:101680000E833701C982DC0158962D913C91599700
:101690002115310509F0E6C018968D919C91199796
:1016A000681779070CF0CDC11A968D919C911B9704
:1016B000481759070CF0C5C18C2C912CFB0126E072
:1016C000C29EE00DF11D1124FB87EA871E161F063E
:1016D0000CF0B7C1A40183E0440F551F8A95E1F7D0
:1016E0005D874C87CA01820D931D181619060CF0F0
:1016F000A8C157968C91811104C05FEA5D1508F46A
:10170000D394AA8DBB8DED91FC9111970680F78142
:10171000E02DCD011995B5E0DB9EC0011124F50146
:101720003596FF87EE87BB82AA8225019C012A1984
:101730003B09398B288BA101485F5F4F5B8B4A8B3C
:10174000E889F989E40DF51DE251F84F5491588765
:1017500061013D822C82888580FF13C0AA8DBB8DDC
:10176000ED91FC91B981B13031F40084F185E02D27
:101770002E813F8116C00284F385E02DEE80FF802C
:101780001AC0EE81FF81E615F705F1F0AA8DBB8D39
:10179000ED91FC91B981B13051F40084F185E02DD7
:1017A0009301A601B2018A8D9B8D19950DC002840B
:1017B000F385E02D7301840194014C815D816A8180
:1017C0007B818A8D9B8D1995E885E695E887FFEFEB
:1017D000CF1ADF0A2C813D81280D391D3D832C83D2
:1017E0004A895B89C416D50609F0B5CF5FEF451A63
:1017F000550A8A819B81880D991D9B838A83AE85BA
:10180000BF854A165B0609F09BCFEE81FF81E61586
:10181000F70509F4F4C0EA8DFB8DA081B181F9814F
:10182000F13079F4B5016B5F7F4F1C96ED91FC911F
:101830001D97830128E030E0A1018A8D9B8D1995C9
:10184000DEC06A857B85681979091A96ED91FC914D
:101850001B9773010C851D859401A1018A8D9B8DB9
:101860001995CDC0F9013496E491DE1AF90132964A
:1018700085919491B7E0DB9E800D911D1124F901B3
:10188000259134913B8B2A8BFC01259134912901C0
:10189000FC013296C490319634913E873296149171
:1018A0003196D4904981423058F0612E012E000CBF
:1018B00077088D2D0D2C000C990B9987888704C013
:1018C00019861886612C712CAA8DBB8DED91FC9127
:1018D00011970680F781E02DCD011995B9818B2EE6
:1018E000912C689CC001699C900D789C900D1124EE
:1018F000FC01EA0DFB1DFD87EC871A82712C612C1F
:10190000E12F110FFF0B95012E0F3F1F3B872A87F9
:10191000AC0CB11CA5014E0F5F1F5F8B4E8BC1013C
:101920008D0D911DD7FC9A95998F888F9E8569168C
:1019300008F065C0862D90E048855985480F591FED
:10194000489D9001499D300D589D300D1124D101C5
:10195000A20FB31FB98BA88BEC85FD85FD83EC83AB
:10196000AA84BB84DA80FA85DF1A288D398D280F86
:10197000391F3D8B2C8B8D2D8A0D4E895F89A416C6
:10198000B506C1F1877041F4C2010196EA89FB896D
:10199000E40DF51D74902C0177FE21C0AA8DBB8D3E
:1019A000ED91FC91B981B13061F40084F185E02DB5
:1019B0002E813F814C895D89B5018A8D9B8D19955A
:1019C0000EC00284F385E02DEE80FF808401940137
:1019D000488959896C817D818A8D9B8D1995770CF9
:1019E000EFEFAE1ABE0A2C813D81280D391D3D83D3
:1019F0002C83C1CF3A813C0D3A83639497CFAA8D53
:101A0000BB8DED91FC9111970288F389E02DCD01FA
:101A10006B960FB6F894DEBF0FBECDBFDF91CF91AE
:101A20001F910F91FF90EF90DF90CF90BF90AF90FC
:101A30009F908F907F906F905F904F903F902F90EE
:101A400019946B960FB6F894DEBF0FBECDBFDF9131
:101A5000CF911F910F91FF90EF90DF90CF90BF90AB
:101A6000AF909F908F907F906F905F904F903F903E
:101A70002F900895863308F0865390917B00282F8D
:101A80002870977F922B90937B008770806480935F
:101A90007C0080917A00806480937A0080917A0043
:101AA00086FDFCCF809178002091790090E0922B08
:101AB00008950F931F93CF93DF93EC018B011016C2
:101AC0001106B4F4FE01859194912496FE0132979B
:101AD000659174918F3F2FEF920729F480E090E099
:101AE0000E94DB1B02C00E94E41804501109E7CFDA
:101AF000DF91CF911F910F910895DF92EF92FF92A6
:101B00000F931F93CF93DF93CDB7DEB768970FB6D0
:101B1000F894DEBF0FBECDBF7C018B0110161106FD
:101B200054F5F70184913196D490F2E0EF0EF11C58
:101B30008F3741F46D2D70E080E090E00E94DB1B58
:101B4000D12C13C02E2DDE011196F701AD019E2F71
:101B5000921B9D1520F494919D933196F8CFED0C36
:101B6000F11C6D2D90E00E94C90DED2DF0E0329634
:101B70000E1B1F0BD3CF68960FB6F894DEBF0FBEB7
:101B8000CDBFDF91CF911F910F91FF90EF90DF902C
:101B900008958B988A98209102012778209302015A
:101BA000A5982EB1277C2EB970910201292F3327D9
:101BB000F901E370FF27A5E0EE0FFF1FAA95E1F7FB
:101BC000E72BE09302017EB1F901EC70FF27EE0FE5
:101BD000FF1FEE0FFF1FE72BEEB974B3F901E071A1
:101BE000FF27EE0FFF1FE72BE4BB7EB1F901E07288
:101BF000FF27F595E795F595E795E72BEEB97091F9
:101C00000201207C3327E3E035952795EA95E1F73B
:101C1000272B209302018998899A20910201277825
:101C200020930201A5982EB1277C2EB97091020154
:101C30009C0123703327F5E0220F331FFA95E1F75B
:101C4000272B209302017EB19C012C703327220F99
:101C5000331F220F331F272B2EB974B39C01207121
:101C60003327220F331F272B24BB7EB19C01207208
:101C700033273595279535952795272B2EB97091C4
:101C800002019C01207C3327F3E035952795FA95D6
:101C9000E1F7272B209302018998899A8A9AFA0101
:101CA000A0914A027FEF760F16160CF0C7C0219163
:101CB00030910201377830930201A5983EB1377C0C
:101CC0003EB960910201322F3370B0E23B9FA00118
:101CD0001124462B409302016EB1322F3C70B4E0C8
:101CE0003B9FA0011124462B4EB944B3322F3071D3
:101CF000330F342B34BB6EB1322F3072432F50E090
:101D00005595479555954795462B4EB9309102010B
:101D1000207C269526952695232B209302018998D1
:101D2000899A711102C0672FBDCFAA23E1F30196F2
:101D30008A9820910201277820930201A5982EB15C
:101D4000277C2EB960910201292F3327A901437006
:101D50005527B5E0440F551FBA95E1F7462B409340
:101D600002016EB1A9014C705527440F551F440F55
:101D7000551F462B4EB964B3A90140715527440F36
:101D8000551F462B44BB6EB1A9014072552755958E
:101D9000479555954795462B4EB940910201207CB9
:101DA000332753E0359527955A95E1F7242B209357
:101DB00002018998899A20910201277820930201D3
:101DC000A5982EB1277C2EB9409102019C01237069
:101DD000332765E0220F331F6A95E1F7242B209308
:101DE00002014EB19C012C703327220F331F220FAA
:101DF000331F242B2EB944B39C0120713327220FAB
:101E0000331F242B24BB4EB19C0120723327359500
:101E1000279535952795242B2EB9409102019C01D9
:101E2000207C3327B3E035952795BA95E1F7242B2D
:101E3000209302018998899A8A9A75CF8B9A08957E
:101E40008F929F92AF92BF92CF92DF92EF92FF92CA
:101E50000F931F93CF93DF9300D01F92CDB7DEB7C0
:101E60007C015B016A014901FC01868D978D8732F7
:101E7000F3E99F0799F4F7018589823031F4F0E2A4
:101E8000CF0ED11C005E1F4F1EC08330E1F420E254
:101E9000A20EB11C80E2880E911C15C086329541BD
:101EA00091F4F701858980FF0EC0C801841B950B52
:101EB00019F40F5F1F4F07C06217730721F44B011E
:101EC000880E991E8A01F701848D80FF3BC084A58E
:101ED000B982AA829B828C82AE014F5F5F4F64E021
:101EE00090E00E94C90DF70180A9D982CA821B83A4
:101EF0000C83AE014F5F5F4F64E090E00E94C90D1C
:101F000080914A02882309F459C0F701868D978D84
:101F10008536910509F052C0B982AA82AE014F5FA1
:101F20005F4F62E086A197A10E94C90DD982CA8243
:101F3000AE014F5F5F4F62E0F70180A591A50E945F
:101F4000C90D3CC0B501F70186A197A10E94E41814
:101F5000B601F70180A591A50E94E4188A149B049C
:101F600019F40C151D0551F1F701848D85FF0EC084
:101F7000858980FF06C0102F0027C02AD12A86013C
:101F800005C0982C8824A828B9284501B501F70177
:101F900084A595A50E94E418B601F70180A991A92E
:101FA0000E94E418B401F70186A597A50E94E418E1
:101FB000B801F70182A993A90E94E4180F900F902D
:101FC0000F900F90DF91CF911F910F91FF90EF90A5
:101FD000DF90CF90BF90AF909F908F900895EF9239
:101FE000FF920F931F93CF93DF937C01E90177FD5D
:101FF00069C157FD67C1FC01808591856817790724
:102000000CF060C182859385481759070CF05AC1BE
:1020100080914902882341F0CE018F719927880F62
:10202000991FC17CC82BD92B8A019B01C7010E9433
:10203000200F80914A02882309F438C18B988A982E
:10204000F70182A593A52091020127782093020130
:10205000A5982EB1277C2EB960910201292F332734
:10206000A9014370552775E0440F551F7A95E1F794
:10207000462B409302016EB1A9014C705527440FC5
:10208000551F440F551F462B4EB964B3A90140712B
:102090005527440F551F462B44BB6EB1A901407212
:1020A00055275595479555954795462B4EB94091DF
:1020B0000201207C3327B3E035952795BA95E1F7E7
:1020C000242B209302018998899A20910201277874
:1020D00020930201A5982EB1277C2EB940910201D0
:1020E0009C012370332715E0220F331F1A95E1F767
:1020F000242B209302014EB19C012C703327220F18
:10210000331F220F331F242B2EB944B39C0120719F
:102110003327220F331F242B24BB4EB19C01207286
:1021200033273595279535952795242B2EB9209162
:102130000201807C992773E0959587957A95E1F760
:10214000822B809302018998899A8A9A2C2F220FD8
:10215000220F220F80910201877880930201A598B7
:102160008EB1877C8EB980910201809302013EB1CD
:10217000CE018827987F892F9927AC014C7055276D
:10218000440F551F440F551F432B4EB934B3AC01B8
:1021900040715527440F551F432B44BB3EB1AC0142
:1021A000407255275595479555954795432B4EB900
:1021B00030910201807C992713E0959587951A95B7
:1021C000E1F7832B809302018998899A809102011B
:1021D000877880930201A5988EB1877C8EB9809113
:1021E0000201809302013EB1C07ED77003E0D69514
:1021F000C7950A95E1F7CE018C709927880F991F32
:10220000880F991F832B8EB934B3CE018071992723
:10221000880F991F832B84BB3EB1CE018072992712
:102220009595879595958795832B8EB98091020119
:10223000C07CDD2773E0D595C7957A95E1F7C82B6B
:10224000C09302018998899A8091020187788093CE
:102250000201A5988EB1877C8EB98091020180938E
:1022600002019EB1822F8C70880F880F892B8EB946
:1022700094B3822F8071880F892B84BB3EB1922F3B
:102280009072892F90E09595879595958795832BEA
:102290008EB980910201207C269526952695282BC3
:1022A000209302018998899A8B9A0CC0BE01F7018C
:1022B00082A593A5DF91CF911F910F91FF90EF9091
:1022C0000C94E418DF91CF911F910F91FF90EF9044
:1022D0000895DF92EF92FF920F931F93CF93DF93B6
:1022E000CDB7DEB72A970FB6F894DEBF0FBECDBFCD
:1022F0007C01862F8370D70155968C935597462F76
:10230000417060FF05C016962D913C91179703C050
:10231000F70124813581D70119963C932E931897A4
:10232000442329F014962D913C91159703C0F70191
:1023300026813781D7011B963C932E931A978230C2
:1023400041F0833041F0813011F088E405C088E22B
:1023500003C088E901C088EF8A87F701248D358D95
:1023600030FF03C08A8580588A8731FF04C09A8570
:1023700080E489278A8733FF04C09A8588E089270B
:102380008A87D7015E968D919C915F9720FFD5C07B
:1023900010914A028431B8E69B07F9F49A85892F97
:1023A000881F8827881F8295880F880F807C96FD5C
:1023B00002C020E001C020E298729A871F828260EA
:1023C000822B88878BE38987AE01495F5F4F63E08B
:1023D00086EB90E00E94C90D89C08336E9E19E0733
:1023E00041F08138F4E99F0721F0813125E192071E
:1023F00009F52A8527FF02C021602A872A8526FF42
:1024000002C022602A87833639E1930719F48A854E
:102410008F730EC0813844E9940719F48A858F724E
:1024200007C08131954109F061C08A858F7E806C3B
:102430008A875CC0112309F459C062E070E0F7019B
:1024400077A366A326E030E031A720A7E2E2F0E020
:10245000D7019B96FC93EE939A979D967C936E93EF
:102460009C9764E070E09F967C936E939E97D196C4
:102470003C932E93D09728E030E0D3963C932E9354
:10248000D2978536910521F58A85982F916084FD34
:1024900002C09A8703C083ED89278A87442351F0BD
:1024A00082E890E0F70197A386A380E890E091A7E7
:1024B00080A732C280E890E0D70197969C938E93D4
:1024C000969782E890E099969C938E93989724C271
:1024D0008235924501F58A85982F926084FD02C06D
:1024E0009A8719C084ED89278A8715C02AE230E0CF
:1024F000F70137A326A38BE290E091A780A74CE2D7
:1025000050E053A742A735A724A737A726A791AB2A
:1025100080AB93AB82AB1111FFC186E390E0AE01BB
:10252000465F5F4F61E00E94C90D8A8590E0D70148
:1025300093969C938E939297E6C02A858339B7E74A
:102540009B0709F448C050F48435F1E09F0781F0FF
:10255000803234E5930709F081C03DC0863243E9FB
:102560009407C9F18930A5EB9A0709F077C033C009
:1025700087E390E0F70195A784A786E390E097A70B
:1025800086A789E390E091AB80AB88E390E093ABC2
:1025900082AB80E290E097A386A381E290E091A7CE
:1025A00080A782E290E093A782A7822F022E000CE0
:1025B000990B8827990F881F9927982F8827990F9B
:1025C00026FD03C060E070E002C060E071E0886258
:1025D000682B792B82C040E052E0D70197965C933C
:1025E0004E93969741E052E099965C934E9398975C
:1025F00042E052E09B965C934E939A9740E152E002
:102600009D965C934E939C9741E152E09F965C931C
:102610004E939E9742E152E0D1965C934E93D097B1
:1026200043E152E0D3965C934E93D29727FD03C0CB
:1026300020E030E002C020E030E88632B3E99B07BA
:1026400031F08032944519F060E07AE602C060E033
:1026500075E3622B732B80E094E035C080E290E05C
:10266000D70197969C938E93969781E290E09996E6
:102670009C938E93989782E290E09B969C938E9386
:102680009A9780E590E09D969C938E939C9781E528
:1026900090E09F969C938E939E9782E590E0D196D2
:1026A0009C938E93D09783E590E0D3969C938E93E2
:1026B000D29727FD03C060E070E002C060E070E8E0
:1026C000776280E690E00E94E4188A8586FD03C068
:1026D00060E070E002C060E071E081E090E00E94A4
:1026E000E4188A8585FD03C060E070E002C068E000
:1026F00070E083FD70616063F70173A362A383E000
:1027000090E00E94E418D70155968C91559780FF70
:1027100036C05C968D919C915D9792FD30C09696E7
:102720008D919C91979798962D913C91999797961A
:102730003C932E93969799969C938E9398979C96FC
:102740008D919C919D97D0962D913C91D1979D967E
:102750003C932E939C97D1969C938E93D0979E9664
:102760008D919C919F97D2962D913C91D3979F9656
:102770003C932E939E97D3969C938E93D297F7017A
:1027800002851385015011092085318521503109B9
:1027900040E050E060E070E0C7010E94200FD701E8
:1027A00016966D917C9117975E968D919C915F978F
:1027B0008732B3E99B0741F4F70125892250223083
:1027C00018F400E210E002C000E010E08732F3E904
:1027D0009F0729F022273327201B310B04C020E25A
:1027E00030E0201B310BD7015C964C9140FF45C077
:1027F0001982D02E0A837B836C833D832E831091B4
:102800004A02111103C083E390E002C08EE090E021
:10281000AE014F5F5F4F66E00E94C90D1982DA82F8
:10282000111103C087E390E002C084E190E0AE01A3
:102830004F5F5F4F62E00E94C90D112389F019823A
:10284000F701868D978D8734934819F081E090E0E9
:1028500002C088E190E0AE014F5F5F4F61E00AC0C7
:10286000D7015C968C9180FF5AC040E050E060E058
:1028700083E190E00E94C90D52C08339B7E79B07FE
:1028800079F160F48032F4E59F0751F1833827E74E
:10289000920781F08435914089F510C0863243E972
:1028A0009407F1F08930A5EB9A07D1F0853292496F
:1028B00029F504C0F70160A171A124C0600F711F48
:1028C0006150710981E390E00E94E418B80182E34D
:1028D00090E00E94E41860E070E083E390E019C0AB
:1028E000D70190966D917C919197626081E094E020
:1028F0000E94E418B80184E094E00BC0F70160A1E5
:1029000071A1626081E690E00E94E418B8018AE655
:1029100090E00E94E41803C086E190E000CE2A9681
:102920000FB6F894DEBF0FBECDBFDF91CF911F91E0
:102930000F91FF90EF90DF900895EF92FF920F9329
:102940001F93DC01ED91FC91048CF58DE02D780155
:1029500001E010E019951F910F91FF90EF900895FD
:10296000EF92FF920F931F93DC01ED91FC91048C89
:10297000F58DE02D7801890121E030E019951F9156
:102980000F91FF90EF9008950895FC016370658B9F
:102990008481958126813781613039F0633029F057
:1029A000918780873387228708953187208793878F
:1029B000828708956F927F928F929F92AF92BF927B
:1029C000CF92DF92EF92FF920F931F93CF93DF93FB
:1029D000EC014B015A0169013801E881F981068057
:1029E000F781E02D1995E881F9810684F785E02DBE
:1029F00087019601A501B401CE011995A501460DE7
:102A0000571D41505109E881F9810684F785E02D71
:102A10009601B401CE011995E881F9810484F58508
:102A2000E02D9301A501B401CE011995C80CD91C64
:102A3000B60161507109E881F9810484F585E02DC2
:102A40009301A501CE011995E881F9810288F389E6
:102A5000E02DCE01DF91CF911F910F91FF90EF906C
:102A6000DF90CF90BF90AF909F908F907F906F90AE
:102A700019948F929F92AF92BF92CF92DF92EF9272
:102A8000FF920F931F93CF93DF934C016B015A0179
:102A9000E901DC01ED91FC916217730781F40417E1
:102AA000150724F48B2D5801042F182F0A191B0920
:102AB00098012F5F3F4F008CF18DE02D12C0401721
:102AC000510709F52617370724F48D2D6901C62F04
:102AD000D82F9E012C193D092F5F3F4F028CF38D9B
:102AE000E02D8701A501B601C4011995DF91CF91B1
:102AF0001F910F91FF90EF90DF90CF90BF90AF901C
:102B00009F908F9008950680F781E02D1995D4014C
:102B1000ED91FC910088F189E02D9E01A501B6019F
:102B2000C4011995D401ED91FC910288F389E02D3F
:102B3000C401DF91CF911F910F91FF90EF90DF9033
:102B4000CF90BF90AF909F908F901994EF92FF928B
:102B50000F931F93DC011A960D911C911B971896E9
:102B60002D913C911997ED91FC91048CF58DE02D00
:102B70007B0140E050E060E070E019951F910F91FB
:102B8000FF90EF9008954F925F926F927F928F9295
:102B90009F92AF92BF92CF92DF92EF92FF920F93EC
:102BA0001F93CF93DF936C012B015A013901480128
:102BB000DC01ED91FC910680F781E02D1995E20191
:102BC000640C751CD601ED91FC91C615D7055CF41B
:102BD0000484F585E02D87019401A501BE01C6019D
:102BE00019952196EFCF0288F389E02DC601DF9178
:102BF000CF911F910F91FF90EF90DF90CF90BF90FA
:102C0000AF909F908F907F906F905F904F901994AE
:102C10008F929F92AF92BF92CF92DF92EF92FF92EC
:102C20000F931F93CF93DF93EC015B014A0169017E
:102C3000E881F9810680F781E02D199595012C0D29
:102C40003D1D21503109E881F9810088F189E02D8D
:102C500078018401A401B501CE011995E881F981BB
:102C60000288F389E02DCE01DF91CF911F910F9162
:102C7000FF90EF90DF90CF90BF90AF909F908F909C
:102C800019948F929F92AF92BF92CF92DF92EF9260
:102C9000FF920F931F93CF93DF93EC015B014A01E7
:102CA00069017801E881F9810680F781E02D1995A5
:102CB000C80CD91C860101501109E881F9810088EE
:102CC000F189E02D9501A401B501CE011995E881A6
:102CD000F9810288F389E02DCE01DF91CF911F9118
:102CE0000F91FF90EF90DF90CF90BF90AF909F90AB
:102CF0008F9019940895EF92FF920F931F93DC0128
:102D0000ED91FC91048CF58DE02D19951F910F919B
:102D1000FF90EF9008950F931F93DC01ED91FC91CC
:102D2000028CF38DE02D19951F910F9108950F934B
:102D30001F93DC01ED91FC91008CF18DE02D199534
:102D40001F910F910895DC01ED91FC910480F581B4
:102D5000E02D19942F923F924F925F926F927F9243
:102D60008F929F92AF92BF92CF92DF92EF92FF929B
:102D70000F931F93CF93DF9300D000D0CDB7DEB772
:102D80002C017E836D836A015901C801FC82EB82AC
:102D90004801841A950A97FE03C091948194910882
:102DA00035012D813E81621A730A77FE03C071944A
:102DB00061947108681479045CF43A2D2B2D5C0140
:102DC000832F922F3D812E81DE82CD82C32ED22E83
:102DD000AD81BE81AA16BB065CF43C2D2D2D6C0185
:102DE000832F922F3D812E81BE82AD82A32EB22EE3
:102DF00085012D813E81021B130B1C012C183D08FF
:102E000037FE03C0319421943108780117FF03C0C5
:102E10003FEFE31AF30AF594E794C816D9062CF0AD
:102E20008FEF9FEF9A83898304C0A1E0B0E0BA835B
:102E3000A9832D813E81A216B30624F1D201ED9122
:102E4000FC910084F185E02D2B813C81681479048C
:102E500024F44D815E81B60103C0A6016D817E819F
:102E6000C2011995E218F308F7FE06C029813A81DC
:102E7000C20ED31EE00EF11E8D819E8101969E83AF
:102E80008D83D7CF26960FB6F894DEBF0FBECDBF89
:102E9000DF91CF911F910F91FF90EF90DF90CF9036
:102EA000BF90AF909F908F907F906F905F904F906A
:102EB0003F902F9008950F931F93CF93DF93FC01C2
:102EC000A685B7858D01005C1F4FE8018881998137
:102ED00001968F739927AD014E5B5F4FEA01288100
:102EE000398128173907D1F3E80128813981A20FE8
:102EF000B31F6C93A685B785A05CBF4F11969C93BA
:102F00008E93A689B7892C9181E090E0078C02C04E
:102F1000880F991F0A94E2F7822B8C9381E081A39A
:102F20000488F589E02D80818064808381E090E0D1
:102F3000DF91CF911F910F910895FC0181A188230A
:102F400029F0A489B5898C9186FFFBCF11A2089541
:102F5000FC01A485B585FD01E05CFF4F2081318136
:102F60003296808191812817390779F0808191818B
:102F7000A80FB91F8C91208131812F5F3F4F2F7394
:102F800033273183208390E008958FEF9FEF0895DA
:102F9000DC011C96ED91FC911D97DF01A05CBF4FF9
:102FA0002D913C91119712968D919C911197281714
:102FB000390739F08D919C91E80FF91F808190E0DD
:102FC00008958FEF9FEF0895FC0124853585F90161
:102FD000E05CFF4F80819181329620813181821B9C
:102FE000930B8F7399270895FB01E05CFF4F2081BD
:102FF0003181DB01AE5BBF4F4D915C912F5F3F4F45
:103000002F7333274217530741F040815181DB0171
:10301000A40FB51F8C93318320830895AF92BF9284
:10302000CF92EF92FF920F931F93CF93DF93EC0118
:10303000262F888D998D009709F040C06A3059F489
:103040001D861C862C898E859F8538E0239F800DE8
:10305000911D112441C06D3009F4AAC08E898823C6
:10306000C1F03C898C859D8546E0349F800D911D83
:10307000112448855985481759075CF41D861C861C
:103080008E859F8548E0349F800D911D11249F8778
:103090008E87EA88FB88088919894E855F856C854B
:1030A0007D85CC88CE010E94200B2C898C859D8546
:1030B00036E0239F800D911D112442C06A3079F4BF
:1030C0001D861C862C89FC013696E4918E859F8591
:1030D0002E9F800D911D11249F878E8769C06D30B2
:1030E00009F466C0FC0134963491631708F460C09B
:1030F0003196E491E61708F45BC0FC0132966591C5
:103100007491422F50E0431B510937E0349F500126
:10311000359FB00C1124A60EB71EF50132963491DE
:103120003196E491332311F0E1110DC0F50134968D
:10313000E4912C898C859D85E29F800D911D112441
:103140009D878C8735C0F501359644915E8955235E
:1031500011F16C89E32FF0E0E40FF11D47FDFA95C2
:103160006E9FD0016F9FB00D11244C855D854A0F75
:103170005B1FE885F985E417F5076CF41D861C864E
:10318000FC013696E4918E859F856E9F800D911D82
:1031900011249F878E87EA88FB88088919894E85C4
:1031A0005F856C857D85CC88CE010E94200BBECFCB
:1031B00081E090E0DF91CF911F910F91FF90EF9010
:1031C000CF90BF90AF9008958B988A98E2E0F1E09D
:1031D000208127782083A5982EB1277C2EB9A08145
:1031E000292F3327A90143705527B5E0440F551FF8
:1031F000BA95E1F74A2B4083AEB1A9014C7055272F
:10320000440F551F440F551F4A2B4EB9A4B3A901B3
:1032100040715527440F551F4A2B44BBAEB1A9013D
:103220004072552755954795559547954A2B4EB968
:103230004081207C332753E0359527955A95E1F757
:10324000242B20838998899A208127782083A59828
:103250002EB1277C2EB940819C0123703327A5E035
:10326000220F331FAA95E1F7242B20834EB19C0136
:103270002C703327220F331F220F331F242B2EB91C
:1032800044B39C0120713327220F331F242B24BB0E
:103290004EB19C012072332735952795359527959A
:1032A000242B2EB92081807C9927B3E095958795B2
:1032B000BA95E1F7822B80838998899A8A9A8081CE
:1032C00087788083A5988EB1877C8EB94081872FBF
:1032D00099279C012370332755E0220F331F5A95FD
:1032E000E1F7242B20834EB19C012C703327220F51
:1032F000331F220F331F242B2EB944B39C0120719E
:103300003327220F331F242B24BB4EB19C01207284
:1033100033273595279535952795242B2EB9208170
:10332000807C9927A3E095958795AA95E1F7822B54
:1033300080838998899A808187788083A5988EB1C7
:10334000877C8EB92081CB0183709927B5E0880FE7
:10335000991FBA95E1F7822B80832EB1CB018C7037
:103360009927880F991F880F991F822B8EB924B334
:10337000CB0180719927880F991F822B84BB2EB1B6
:10338000CB01807299279595879595958795822B86
:103390008EB98081607C7727A3E075956795AA95A3
:1033A000E1F7682B60838998899A8B9A08951F9218
:1033B0000F920FB60F9211240BB60F922F933F93DB
:1033C0008F939F93EF93FF9320918B0230918C0208
:1033D00080918D0290918E022817390731F48091E7
:1033E00031018F7D8093310114C0E0918D02F09105
:1033F0008E02E55BFD4F208180918D0290918E02BF
:1034000001968F73992790938E0280938D0220935B
:103410003601FF91EF919F918F913F912F910F90E6
:103420000BBE0F900FBE0F901F9018951F920F921A
:103430000FB60F9211240BB60F922F933F938F93D9
:103440009F93EF93FF932091130330911403809186
:103450001503909116032817390731F48091D10094
:103460008F7D8093D10014C0E0911503F091160375
:10347000ED52FD4F20818091150390911603019626
:103480008F73992790931603809315032093D6008A
:10349000FF91EF919F918F913F912F910F900BBED4
:1034A0000F900FBE0F901F9018951F920F920FB69E
:1034B0000F9211240BB60F922F933F938F939F93EC
:1034C000EF93FF9320919B0330919C0380919D0388
:1034D00090919E032817390731F48091C9008F7DA0
:1034E0008093C90014C0E0919D03F0919E03E55ABA
:1034F000FC4F208180919D0390919E0301968F73D4
:10350000992790939E0380939D032093CE00FF9173
:10351000EF919F918F913F912F910F900BBE0F9044
:103520000FBE0F901F9018951F920F920FB60F921B
:1035300011240BB60F922F933F938F939F93EF938A
:10354000FF932091230430912404809125049091CD
:1035500026042817390731F48091C1008F7D8093AC
:10356000C10014C0E0912504F0912604ED51FC4FF8
:103570002081809125049091260401968F739927CC
:1035800090932604809325042093C600FF91EF9129
:103590009F918F913F912F910F900BBE0F900FBE77
:1035A0000F901F9018951F920F920FB60F92112433
:1035B0000BB60F922F933F934F935F936F937F932D
:1035C0008F939F93AF93BF93EF93FF9380913001BD
:1035D00082FD07C0809136016FE872E00E94F41707
:1035E00002C080913601FF91EF91BF91AF919F9101
:1035F0008F917F916F915F914F913F912F910F909C
:103600000BBE0F900FBE0F901F9018951F920F9238
:103610000FB60F9211240BB60F922F933F934F9337
:103620005F936F937F938F939F93AF93BF93EF932A
:10363000FF938091D00082FD07C08091D60067E1A2
:1036400073E00E94F41702C08091D600FF91EF91C1
:10365000BF91AF919F918F917F916F915F914F91AA
:103660003F912F910F900BBE0F900FBE0F901F90A8
:1036700018951F920F920FB60F9211240BB60F924E
:103680002F933F934F935F936F937F938F939F936A
:10369000AF93BF93EF93FF938091C80082FD07C063
:1036A0008091CE006FE973E00E94F41702C0809110
:1036B000CE00FF91EF91BF91AF919F918F917F913C
:1036C0006F915F914F913F912F910F900BBE0F9093
:1036D0000FBE0F901F9018951F920F920FB60F926A
:1036E00011240BB60F922F933F934F935F936F93D9
:1036F0007F938F939F93AF93BF93EF93FF938091AB
:10370000C00082FD07C08091C60067E274E00E949D
:10371000F41702C08091C600FF91EF91BF91AF9165
:103720009F918F917F916F915F914F913F912F91D9
:103730000F900BBE0F900FBE0F901F901895CF9358
:10374000DF9390E0FC01E251F34F2491FC01E25B36
:10375000F24F8491882361F190E0880F991FFC015A
:10376000EC56F24FC591D491FC01EC5CF24FA5915F
:10377000B491611109C09FB7F89488812095822384
:103780008883EC912E230BC0623061F49FB7F894CC
:103790008881322F309583238883EC912E2B2C93B4
:1037A0009FBF06C08FB7F894E8812E2B28838FBF68
:1037B000DF91CF910895CF92DF92EF92FF92CF9356
:1037C000DF936B017C010E942807EB01C114D10437
:1037D000E104F10479F00E9428076C1B7D0B683E20
:1037E0007340A0F381E0C81AD108E108F108C8517C
:1037F000DC4FECCFDF91CF91FF90EF90DF90CF9037
:103800000895CF93DF9300D0CDB7DEB7789484B519
:10381000826084BD84B5816084BD85B5826085BDCC
:1038200085B5816085BD80916E00816080936E005A
:10383000109281008091810082608093810080914C
:1038400081008160809381008091800081608093FD
:1038500080008091B10084608093B1008091B000BD
:1038600081608093B000809191008260809391008C
:10387000809191008160809391008091900081609F
:10388000809390008091A10082608093A10080913C
:10389000A10081608093A1008091A000816080934D
:1038A000A0008091210182608093210180912101FB
:1038B00081608093210180912001816080932001AB
:1038C00080917A00846080937A0080917A0082608F
:1038D00080937A0080917A00816080937A00809151
:1038E0007A00806880937A001092C100E0917F0492
:1038F000F091800481E090E09C0100908B0402C074
:10390000220F331F0A94E2F72083E0917B04F091A9
:103910007C041082E0917D04F0917E042FEC2083E2
:1039200010928C04E0918104F091820440819C010A
:103930000090870402C0220F331F0A94E2F7242B61
:103940002083E0918104F091820440819C010090E9
:10395000880402C0220F331F0A94E2F7242B20832D
:10396000E0918104F091820440819C0100908904DF
:1039700002C0220F331F0A94E2F7242B2083E09128
:103980008104F0918204208100908A0402C0880F93
:10399000991F0A94E2F780958223808360E080E09B
:1039A00090E00E94BC09883024E5920709F4D6C053
:1039B000803264E5960709F4D4C08938994809F43F
:1039C000D3C060E087E690E00E94BC09873497444A
:1039D00009F4CDC081EA90E00E94FD0A613081E6E1
:1039E000780709F4C7C06F3F7F4F19F406E215E16D
:1039F000F5C08FEB90E00E94CB0A673523E8720791
:103A000009F4BBC0613884E9780709F4B9C06131B1
:103A100095E1790709F4B7C0603225E1720709F42E
:103A2000B5C0663285E1780709F3613895E1790719
:103A300009F4AFC06115744109F4AEC084ED90E0A3
:103A40000E94FD0A6031734509F4A9C087ED90E03A
:103A50000E94FD0A6133704809F4A4C08FEE90E023
:103A60000E94CB0A6732734909F49FC08EEF90E041
:103A70000E94FD0ABB27A92F982F872F83359042DC
:103A800009F496C084E090E00E94FD0A9B01811138
:103A900024C0211570E8370701F58091010290914B
:103AA0000202A091030289839A83AB83AE014F5F28
:103AB0005F4F63E089EB90E00E94C90D60E080ED0C
:103AC00090E00E94BC09893929F08039C9F400E9E5
:103AD00010E984C009E910E081C0263285E1380789
:103AE00009F484CF203F99E8390709F464C02235EE
:103AF00065E8360709F462C021313C4A09F461C027
:103B000083ED90E00E94FD0ABB27A92F982F872FF5
:103B10008336914909F458C083ED90E00E94FD0A74
:103B2000CB013DE6370F323008F451C0783909F443
:103B30004EC0773709F44BC0763109F448C0633D75
:103B4000710509F446C0833D934D09F445C060E01A
:103B500080E090E00E94BC098C0140C008E014E5C0
:103B60003DC000E214E53AC009E812E137C007E4BD
:103B700013E834C003E619E131C007E513E82EC0AD
:103B800001E814E92BC001E115E128C000E215E1CC
:103B900025C001E815E122C004E118E61FC000E1DC
:103BA00013E51CC001E310E819C007E213E916C0D1
:103BB00003E510E213C005E317E710C009E817E7B3
:103BC0000DC001E11CEA0AC003E611E907C08B0140
:103BD00005C003ED10E002C003ED13ED0E948D0956
:103BE0001092BC041092BB041093C0040093BF0455
:103BF000073573E8170709F499C108F0A5C0033524
:103C000090E2190709F4F3C108F047C0013165E1FA
:103C1000160709F42CC1B0F40939110509F49EC145
:103C200038F40130110509F04DC280E091E1B0C1D6
:103C3000043581E0180709F40FC10530154109F476
:103C4000A5C140C2063225E1120709F428C180F45B
:103C50000032154109F036C283E194E09093BE042E
:103C60008093BD0466E0E62EF12C09E013E030C23B
:103C7000013885E1180709F4CFC10230164109F077
:103C800021C283E094E09093BE048093BD04B6E02B
:103C9000EB2EF12C02E612E01BC2043128E61207DB
:103CA00009F421C108F5003173E5170709F403C1D0
:103CB00078F40533154409F005C280E090E1909353
:103CC000BE048093BD046CE970E086EB96E0E4C12D
:103CD000083024E5120709F459C10930184609F0E3
:103CE000F1C182E091E162C1033977E7170709F476
:103CF000D6C1A8F4033897E7190709F40CC10938AD
:103D0000174709F0DFC183E194E09093BE048093EC
:103D1000BD0421E4E22EF12C07EB12E0D9C10639F3
:103D200067E7160709F493C10133104809F0CAC1C7
:103D300083E194E19093BE048093BD0492E1E92E67
:103D4000F12C05EA12E0C4C1083383E9180709F42D
:103D500054C170F5073223E9120709F430C1B8F4F1
:103D6000023073E9170709F445C138F400391049E6
:103D700009F0A8C183E194E1DBC0003223E9120716
:103D800009F404C10532134909F40BC19BC109327E
:103D900073E9170709F434C108F403C1013393E947
:103DA000190709F401C10533134909F4FDC08AC19B
:103DB000093864E91607C8F5073874E9170708F0E9
:103DC00049C1013884E9180709F429C190F4005465
:103DD00013490230110508F075C183E194E0909316
:103DE000BE048093BD04F5E6EF2EF12C0AEF11E03E
:103DF0006FC10638144909F065C183E094E09093DF
:103E0000BE048093BD0480EE91E09093A80480935B
:103E1000A70480E491E09093A6048093A5047BE33B
:103E2000E72EF12C0AE711E053C1053065EB1607C8
:103E300009F428C138F401311C4A09F043C183E177
:103E400094E1E0C0093095EB190709F428C1053069
:103E5000154C09F417C136C182E090E19093BE047D
:103E60008093BD046CE970E082E597E015C183E0C2
:103E700090E09093BE048093BD0480EE91E0909317
:103E8000A8048093A70480E491E09093A604809313
:103E9000A50473E0E72EF12C0FE013E019C183E1D4
:103EA00094E09093BE048093BD045CE0E52EF12C79
:103EB0000DEF12E00DC183E19EE09093BE0480936C
:103EC000BD0480EE91E09093A8048093A70480E461
:103ED00091E09093A6048093A50442E0E42EF12C97
:103EE0000BEF12E0F5C083E094E09093BE04809362
:103EF000BD0480EE91E09093A8048093A70480E431
:103F000091E09093A6048093A50433E0E32EF12C76
:103F100008EF12E0DDC082E091E19093BE0480934F
:103F2000BD0460E970E086E296E0B6C083E094E10B
:103F30009093BE048093BD0480EE91E09093A8041A
:103F40008093A70480E491E09093A6048093A50455
:103F500082E0E82EF12C03EA12E0BAC083E194E19A
:103F60009093BE048093BD0480EE91E09093A804EA
:103F70008093A70480E491E09093A6048093A50425
:103F80000DE1E02EF12C06E812E0A2C084E090E101
:103F90009093BE048093BD0468ED70E08EE495E0DC
:103FA0007BC080E091E102C080E090E19093BE048C
:103FB0008093BD046CEC70E082E894E06DC083E017
:103FC00094E09093BE048093BD0480E991E09093C7
:103FD000A8048093A70480EF90E09093A6048093B8
:103FE000A5041EE1E12EF12C08E612E071C087E184
:103FF00094E108C083E094E005C083E194E002C04E
:1040000083E096E19093BE048093BD04A3E0EA2E82
:10401000F12C0FE512E05CC083E194E002C087E080
:1040200094E09093BE048093BD0480EE91E0909361
:10403000A8048093A70480E491E09093A604809361
:10404000A504E5E4EE2EF12C05EB11E041C083E080
:1040500094E002C083E194E09093BE048093BD0499
:1040600080EE91E09093A8048093A70480E491E00F
:104070009093A6048093A5046BE2E62EF12C0FE446
:1040800011E026C088E090E19093BE048093BD04C7
:1040900060EB70E082ED93E00E94590D17C080E064
:1040A00090E19093BE048093BD0460EC70E082E1E7
:1040B00093E00E94590D80E991E09093A8048093C9
:1040C000A70404C01092A6041092A50400E010E01A
:1040D0002091BE04822F82958F7090E08170992785
:1040E0009093C2048093C1040115110581F069E029
:1040F00070E086E491E00E947D0DB701C8010E9446
:104100007D0D66E070E080E491E00E947D0D60E04E
:1041100081EA94E00E94691160E081EA94E00E94E3
:10412000C0078091BF049091C0048838944909F079
:1041300064C21092490220EE3FEF40E050E060E0A0
:1041400070E081EA94E00E94EF0FE090CB04F090E1
:10415000CC0480914A02811107C08091BD0480FF88
:1041600003C05EE2E52EF12C8091BF049091C00463
:104170008230964119F44EE2E42EF12C00E010E07A
:1041800020E030E040E050E060E070E081EA94E060
:104190000E94200F8091BD0480FD10C060E070E09F
:1041A0008091C7049091C8040E94E41860E070E018
:1041B0008091C9049091CA040E94E4188B988A984F
:1041C00080910201877880930201A5988EB1877C47
:1041D0008EB9409102018F2D99279C0123703327BE
:1041E00055E0220F331F5A95E1F7242B209302014B
:1041F0004EB19C012C703327220F331F220F331F27
:10420000242B2EB944B39C0120713327220F331F76
:10421000242B24BB4EB19C01207233273595279562
:1042200035952795242B2EB920910201807C992762
:10423000F3E095958795FA95E1F7822B809302013B
:104240008998899A80910201877880930201A598C4
:104250008EB1877C8EB920910201C70183709927A6
:10426000A5E0880F991FAA95E1F7822B80930201A0
:104270002EB1C7018C709927880F991F880F991F3D
:10428000822B8EB924B3C70180719927880F991F9B
:10429000822B84BB2EB1C701807299279595879593
:1042A00095958795822B8EB920910201C701807C5C
:1042B000992733E0959587953A95E1F7822B80937E
:1042C00002018998899A8A9A80910101877880935E
:1042D00001019D988DB1877C8DB94091BD045091AD
:1042E000BE048091BF049091C00446FD1EC0889A10
:1042F000889888988898209100012CB122B32CB11D
:1043000020910001889A40FD10C0893822E192076F
:1043100061F0889A889888988898209100012CB13B
:1043200022B32CB120910001889A8131954161F42A
:10433000889A889888988898809100018CB182B377
:104340008CB180910001889AFA01E470FF27889A65
:1043500088988898889844FF8CC0609100018CB13F
:1043600092B37CB1309100016076262F229526957C
:104370002770807386958695682F622B9072892F9F
:1043800090E095958795862B672F6870660F660F6E
:10439000862B632F687198E0699FB0011124682B08
:1043A000889A889A889888988898809100012CB17A
:1043B00092B37CB1A09100018076382F329536956A
:1043C0003770207326952695822F832B9072292F84
:1043D00030E035952795282B872F8870880F880F18
:1043E000282B8A2F887178E0879F70011124822FF3
:1043F0008E29889A889A8898889888987091000160
:10440000ACB132B32CB1909100017076B72FB29558
:10441000B695B770A073A695A6957A2F7B2B3072B0
:10442000A32FB0E0B595A795A72B2870220F220FD8
:10443000A22B987178E0979F900111242A2B889ADB
:104440008C7FEF2B59F0287F98E0899F7001112411
:10445000F22A669566956695E62A7CC0687F78E0C4
:10446000879F70011124F62A269526952695E22A23
:1044700071C0D09000018CB192B3BCB1A091000189
:10448000889A889A889888988898309100012CB1E9
:1044900002B36CB1C09000013076E32EF12C15E030
:1044A000F594E7941A95E1F7207330E03595279558
:1044B00035952795E22AF32A007210E015950795A5
:1044C000E02AF12A687070E0660F771F660F771F89
:1044D0009701262B372B6C2D687178E0679F700150
:1044E0001124E22AF32A889A2D2D2076322F329534
:1044F00036953770807386958695282F232B90727A
:10450000892F90E095958795822BB870BB0FBB0FD4
:104510008B2B2A2F287198E0299F90011124822B40
:10452000F82A43FF03C0FE24EF24FE24EF2B91F072
:104530009701207E3770C701892F99278695869528
:104540008695822B932BFE2CEE24FF0CFF0CFF0C88
:10455000E82AF92A80914902882399F09701207C62
:10456000C7018827947055E0969587955A95E1F78D
:104570006FE3E622FF24F694E794E82AF92AE22A78
:10458000F32A889A8B9A80910101886780930101B0
:104590009D9A8DB188638DB940FD14C00091AB0424
:1045A0001091AC04015011092091A9043091AA0482
:1045B0002150310940E050E060E070E081EA94E091
:1045C0000E94200F7FE1E7167FEFF706B1F486E047
:1045D0008983AE014F5F5F4F61E08AE390E00E9404
:1045E000C90D8091BD049091BE048F7E9093BE044E
:1045F0008093BD0481E0809349026FEF7FEF81EAF1
:1046000094E00E940B0761E081EA94E00E94691146
:10461000C12CD12C60E080918F040E949F1B60E030
:10462000809190040E949F1B61E0809192040E94FF
:104630009F1B61E0809191040E949F1B90919D04BB
:10464000E0919504F09196048081892B808380917C
:104650009E04E0919904F0919A04908180958923B9
:10466000808380918F040E943A0D8C0180918F0489
:104670000E943A0D9801281B390B2C5F3F4F2930BF
:10468000310538F4800F911F9595879577247394A1
:1046900001C0712CEE24EA9423E0F22EE81AF90A04
:1046A00060E0809192040E949F1B60E080919104E1
:1046B0000E949F1B61E080918F040E949F1B61E01C
:1046C000809190040E949F1B8091A004E0919B0424
:1046D000F0919C04908180958923808390919F0420
:1046E000E0919704F09198048081892B80838091D8
:1046F00091040E943A0D8C01809191040E943A0D20
:104700005C01C8018A199B090496099728F4A00E38
:10471000B11EB594A79401C0712C61E08091920400
:104720000E949F1B60E080918F040E949F1B8091DC
:104730009D04E0919504F0919604908180958923E1
:1047400080839091A004E0919B04F0919C0480816F
:10475000892B8083809191040E943A0D8C01809175
:104760008F040E943A0D80909304909094048114D9
:104770009104E1F1BC01990F880B990B0E94692704
:104780001B012C01B801110F880B990B0E9469279E
:104790009B01AC01C201B1010E94BF2620E030E0C4
:1047A00040E85FE30E9452261B012C01B7010F2C49
:1047B000000C880B990B0E946927A20191010E94AD
:1047C000F5271B012C01B40180E090E00E946727CF
:1047D000A20191010E94F52720E030E040E85AE371
:1047E0000E94F5270E9431278B0107C0BC01601B86
:1047F000710B0FEF13E0061B170B711002C000E0E6
:1048000010E061E089E30E949F1B61E088E30E9461
:104810009F1B0A5011090F3D134008F069C02FEF8C
:1048200033E02A193B09C901330FAA0BBB0B9C01CA
:10483000AD012456310941095109A1E2BEEF0E94A0
:104840001C2628E433E040E050E00E94EF252901D7
:104850003A019FED490E91E0591E611C711CC70180
:10486000FF0CAA0BBB0B9C01AD0128573109410974
:104870005109A1ECBEEF0E941C2620E233E040E08B
:1048800050E00E94EF2549015A016FE3860E61E076
:10489000961EA11CB11C80910002882359F020E0D3
:1048A00030E0A401B20181EA94E00E94EF0F10927F
:1048B000000210C040913E0250913F0260913C02C4
:1048C00070913D02E12CF12C8401920181EA94E087
:1048D0000E94391550923D0240923C0290923F0254
:1048E00080923E0272E3C716D10409F091CE04C053
:1048F00082E3C816D10421F481E08093000288CEBF
:1049000061E070E080E090E00E94DB1B9FEFC91A3D
:10491000D90A80CECF92DF92EF92FF92EBE6F4E0DD
:104920001382128288EEC82E83E0D82EE12CF12C5F
:10493000C482D582E682F78268E072E07183608388
:1049400087E294E09587848783EE93E09787868754
:1049500085EC90E0918B808B84EC90E0938B828B44
:1049600080EC90E0958B848B81EC90E0978B868B2C
:1049700082EC90E0918F808F86EC90E0938F828F15
:1049800044E0448F33E0358F27E0268F95E0978F02
:1049900081E080A3EAE1F5E013821282C482D5822D
:1049A000E682F78271836083AFE9B3E0B587A487BD
:1049B000ABE5B3E0B787A687ADECB0E0B18BA08BD9
:1049C000ACECB0E0B38BA28BA8ECB0E0B58BA48BC1
:1049D000A9ECB0E0B78BA68BAAECB0E0B18FA08FAA
:1049E000AEECB0E0B38FA28F448F358F268F978FB8
:1049F00080A3E8EFF4E013821282C482D582E682BB
:104A0000F78271836083A7E1B3E0B587A487A3ED44
:104A1000B2E0B787A687A5EDB0E0B18BA08BA4ED7F
:104A2000B0E0B38BA28BA0EDB0E0B58BA48BA1ED71
:104A3000B0E0B78BA68BA2EDB0E0B18FA08FA6ED52
:104A4000B0E0B38FA28F448F358F268F978F80A3CE
:104A5000E6EDF4E013821282C482D582E682F78208
:104A6000718360836FE872E0758764876BE472E03E
:104A70007787668765E371E0718B608B64E371E033
:104A8000738B628B60E371E0758B648B61E371E023
:104A9000778B668B62E371E0718F608F66E371E004
:104AA000738F628F448F358F268F978F80A3E1EAB3
:104AB000F4E01382128240EF50E05583448320E4F7
:104AC00031E0378326835187408733872287158AD1
:104AD0001586148617861686848B2FEF3FEF338B4F
:104AE000228B318B208B868B178A118E108E88E15A
:104AF00092E091838083ADE8B4E089E312968C93D1
:104B0000129788E314968C93149789E013968C93EC
:104B1000139788E015968C9315978CE291E0179681
:104B20009C938E931697E6E5FDE0E491F0E0EE0F9E
:104B3000FF1FEC5CF24F8591949119969C938E9394
:104B40001897E7E8FDE0E491F0E0EE0FFF1FEC5C62
:104B5000F24F859194911B969C938E931A97E6E859
:104B6000FDE0E491F0E0EE0FFF1FEC5CF24F859169
:104B700094911D969C938E931C97E7E5FDE0E4913C
:104B8000F0E0EE0FFF1FEC5CF24F859194911F96C1
:104B90009C938E931E97E6EFFCE0E4915096EC9385
:104BA0005097E7E2FDE0E4915296EC935297E6E2EB
:104BB000FDE0E4915196EC935197E7EFFCE0E4912E
:104BC0005396EC9353978AE090E08D939C93FF90DB
:104BD000EF90DF90CF900895F8940C946A28052EFA
:104BE00097FB1EF400940E94062657FD07D00E94F2
:104BF000212607FC03D04EF40C94062650954095D0
:104C0000309521953F4F4F4F5F4F08959095809578
:104C1000709561957F4F8F4F9F4F08950E94432657
:104C2000A59F900DB49F900DA49F800D911D112400
:104C30000895B7FF0C940E260E940E26821B930B3C
:104C40000895A1E21A2EAA1BBB1BFD010DC0AA1FCD
:104C5000BB1FEE1FFF1FA217B307E407F50720F0E5
:104C6000A21BB30BE40BF50B661F771F881F991F60
:104C70001A9469F760957095809590959B01AC01A9
:104C8000BD01CF010895A29FB001B39FC001A39FB2
:104C9000700D811D1124911DB29F700D811D112475
:104CA000911D08955058BB27AA270E946A260C948C
:104CB000BB270E94AD2738F00E94B42720F039F4BA
:104CC0009F3F19F426F40C94AA270EF4E095E7FB15
:104CD0000C94A427E92F0E94CC2758F3BA17620737
:104CE00073078407950720F079F4A6F50C94EE2756
:104CF0000EF4E0950B2EBA2FA02D0B01B9019001F7
:104D00000C01CA01A0011124FF27591B99F0593F3A
:104D100050F4503E68F11A16F040A22F232F342F82
:104D20004427585FF3CF469537952795A795F040D0
:104D30005395C9F77EF41F16BA0B620B730B840BE5
:104D4000BAF09150A1F0FF0FBB1F661F771F881F9D
:104D5000C2F70EC0BA0F621F731F841F48F48795F5
:104D600077956795B795F7959E3F08F0B0CF9395E7
:104D7000880F08F09927EE0F9795879508950E9460
:104D8000D3260C94BB270E94B42758F00E94AD276D
:104D900040F029F45F3F29F00C94A42751110C94A2
:104DA000EF270C94AA270E94CC2768F39923B1F32C
:104DB000552391F3951B550BBB27AA276217730741
:104DC000840738F09F5F5F4F220F331F441FAA1FD5
:104DD000A9F335D00E2E3AF0E0E832D09150504091
:104DE000E695001CCAF72BD0FE2F29D0660F771F3F
:104DF000881FBB1F261737074807AB07B0E809F025
:104E0000BB0B802DBF01FF2793585F4F3AF09E3FA9
:104E1000510578F00C94A4270C94EF275F3FE4F33E
:104E2000983ED4F3869577956795B795F7959F5FEC
:104E3000C9F7880F911D9695879597F90895E1E038
:104E4000660F771F881FBB1F621773078407BA0797
:104E500020F0621B730B840BBA0BEE1F88F7E095F2
:104E600008950E9438276894B1110C94EF27089593
:104E70000E94D42788F09F5798F0B92F9927B751EF
:104E8000B0F0E1F0660F771F881F991F1AF0BA95EE
:104E9000C9F714C0B13091F00E94EE27B1E0089537
:104EA0000C94EE27672F782F8827B85F39F0B93F29
:104EB000CCF3869577956795B395D9F73EF49095A1
:104EC0008095709561957F4F8F4F9F4F0895E8941F
:104ED00009C097FB3EF490958095709561957F4F42
:104EE0008F4F9F4F9923A9F0F92F96E9BB279395F0
:104EF000F695879577956795B795F111F8CFFAF400
:104F0000BB0F11F460FF1BC06F5F7F4F8F4F9F4F30
:104F100016C0882311F096E911C0772321F09EE88E
:104F2000872F762F05C0662371F096E8862F70E0F4
:104F300060E02AF09A95660F771F881FDAF7880FCE
:104F40009695879597F9089597F99F6780E870E09F
:104F500060E008959FEF80EC089500240A941616EF
:104F6000170618060906089500240A941216130657
:104F7000140605060895092E0394000C11F48823E5
:104F800052F0BB0F40F4BF2B11F460FF04C06F5F01
:104F90007F4F8F4F9F4F089557FD9058440F551FD7
:104FA00059F05F3F71F04795880F97FB991F61F0AB
:104FB0009F3F79F087950895121613061406551F22
:104FC000F2CF4695F1DF08C0161617061806991F8E
:104FD000F1CF86957105610508940895E894BB2783
:104FE00066277727CB0197F908950E9408280C942B
:104FF000BB270E94AD2738F00E94B42720F09523EC
:1050000011F00C94A4270C94AA2711240C94EF27D8
:105010000E94CC2770F3959FC1F3950F50E0551F68
:10502000629FF001729FBB27F00DB11D639FAA27FD
:10503000F00DB11DAA1F649F6627B00DA11D661F4C
:10504000829F2227B00DA11D621F739FB00DA11D6D
:10505000621F839FA00D611D221F749F3327A00D27
:10506000611D231F849F600D211D822F762F6A2FC3
:1050700011249F5750409AF0F1F088234AF0EE0F28
:10508000FF1FBB1F661F771F881F91505040A9F755
:105090009E3F510580F00C94A4270C94EF275F3FAE
:1050A000E4F3983ED4F3869577956795B795F79591
:1050B000E7959F5FC1F7FE2B880F911D9695879509
:1050C00097F90895EE0FFF1F881F8BBF0790F69189
:0850D000E02D1994F894FFCFC4
:1050D80001FF8357000000005B179707E417A81724
:1050E800C8179D17000000000E189707EF0F7A16D3
:1050F800A3167B1697168B16AA167A166911C0077F
:0C510800B0149D1406080B073915DA14CA
:00000001FF
