:100000000C9435010C9466010C9466010C94660105
:100010000C9466010C9466010C9466010C946601C4
:100020000C9466010C9466010C9466010C946601B4
:100030000C9466010C9466010C9466010C946601A4
:100040000C9466010C9466010C9466010C94660194
:100050000C9466010C9466010C9466010C9498044F
:100060000C9466010C9465040C948D030C94660149
:100070000C9466010C9466010C9466010C94660164
:100080000C9466010C9466010C9466010C94660154
:100090000C9432040C944E030C9466010C9466018B
:1000A0000C9466010C9466010C9466010C94660134
:1000B0000C9466010C9466010C9466010C94660124
:1000C0000C9466010C9466010C9466010C94FF0379
:1000D0000C940F030C9466010C94CC030C94D00286
:1000E0000C9466016F02720265026902A90276022F
:1000F0007A028002840288028E0292029602A9028B
:100100009C02A002A4020C94B6010C946F020C9401
:10011000AB010C94A9020C9472020C9492020C9400
:100120001C020C94E2040C947A020C9465020C9468
:1001300069020C9469010C94F2010C9476020C94FF
:10014000D6010C949C020C9488020C94A4020C948A
:1001500096020C948E020C94A0020C9480020C94D3
:10016000840200002100240027002A002D00300016
:10017000330001010000040107010A010000220010
:10018000250028002B002E00310034000201000061
:10019000050108010B010505050507050808080804
:1001A000020202020A0A080804040404010101010F
:1001B000010101010303030303030303040707070A
:1001C0000C0C0C0C0C0C0C0C0202020206060606AF
:1001D000060606060B0B0B0B0B0B0B0B010210207C
:1001E000200808102040102040800201020108046D
:1001F0000201010204081020408080402010080401
:100200000201800402018040201008040201080459
:10021000020101020408102040800102040810209D
:1002200040800000090A02080B0C0D0706030401B8
:1002300000000000000000000000000000000000BE
:10024000000000000000000000000000000011108D
:100250000F0000000000000000000000000000008F
:100260000000000000000000E20411241FBECFEFD8
:10027000D1E2DEBFCDBF00E00CBF12E0A0E0B2E0F3
:10028000E2EDFEE000E00BBF02C007900D92A83146
:10029000B107D9F724E0A8E1B2E001C01D92A93C62
:1002A000B207E1F711E0C5E3D1E000E006C0219715
:1002B0000109802FFE010E945F07C433D10780E04F
:1002C0000807A9F70E94B4050C943A070C940000A3
:1002D00008950F931F93CF93DF93FC01A685B785F5
:1002E0008D01005C1F4FE8018881998101968F7311
:1002F0009927AD014E5B5F4FEA01288139812817AC
:100300003907D1F3E80128813981A20FB31F6C931B
:10031000A685B785A05CBF4F11969C938E93A68946
:10032000B7892C9181E090E0078C02C0880F991F5B
:100330000A94E2F7822B8C9381E081A30488F589EB
:10034000E02D80818064808381E090E0DF91CF9117
:100350001F910F910895FC0181A1882329F0A489A0
:10036000B5898C9186FFFBCF11A20895FC01A4856D
:10037000B585FD01E05CFF4F20813181329680819F
:1003800091812817390779F080819181A80FB91FD1
:100390008C91208131812F5F3F4F2F733327318321
:1003A000208390E008958FEF9FEF0895DC011C9665
:1003B000ED91FC911D97DF01A05CBF4F2D913C9109
:1003C000119712968D919C9111972817390739F042
:1003D0008D919C91E80FF91F808190E008958FEF37
:1003E0009FEF0895FC0124853585F901E05CFF4FFE
:1003F00080819181329620813181821B930B8F7392
:1004000099270895FB01E05CFF4F20813181DB01DA
:10041000AE5BBF4F4D915C912F5F3F4F2F733327E2
:100420004217530741F040815181DB01A40FB51FF2
:100430008C93318320830895CF92DF92EF92FF92C5
:100440000F931F93CF93DF936C01EB017B01E40EBD
:10045000F51E00E010E0CE15DF0561F06991D601D0
:10046000ED91FC910190F081E02DC6011995080FE6
:10047000191FF1CFC801DF91CF911F910F91FF900C
:10048000EF90DF90CF900895362F90E0FC01EE5D65
:10049000FD4F4491FC01E452FE4F2491FC01EA56C9
:1004A000FE4F9491992309F468C0442309F451C084
:1004B00050E0FA013197E131F10508F04AC0882790
:1004C000EE58FF4F8F4F0C945F07809180008F771D
:1004D00003C0809180008F7D809380003AC084B5F6
:1004E0008F7702C084B58F7D84BD33C08091B0000A
:1004F0008F7703C08091B0008F7D8093B00029C0BA
:10050000809190008F7707C0809190008F7D03C00D
:1005100080919000877F809390001BC08091A00005
:100520008F7707C08091A0008F7D03C08091A000CD
:10053000877F8093A0000DC0809120018F7707C036
:10054000809120018F7D03C080912001877F80935F
:100550002001E92FF0E0EE0FFF1FE458FE4FA591B8
:10056000B4919FB7F894311104C08C912095282341
:1005700002C0EC912E2B2C939FBF0895009769F039
:10058000FC0101900020E9F73197AF01481B590B9E
:10059000BC0187EA94E00C941C0280E090E008958E
:1005A0001F920F920FB60F9211240BB60F922F933A
:1005B0003F938F939F93EF93FF932091610230912C
:1005C000620280916302909164022817390731F426
:1005D000809131018F7D8093310114C0E0916302DD
:1005E000F0916402EF5DFD4F208180916302909154
:1005F000640201968F73992790936402809363023B
:1006000020933601FF91EF919F918F913F912F9110
:100610000F900BBE0F900FBE0F901F9018951F925A
:100620000F920FB60F9211240BB60F922F933F9398
:100630008F939F93EF93FF9320910B0330910C03C3
:1006400080910D0390910E032817390731F48091A2
:10065000D1008F7D8093D10014C0E0910D03F09103
:100660000E03E553FD4F208180910D0390910E0301
:1006700001968F73992790930E0380930D03209317
:10068000D600FF91EF919F918F913F912F910F9005
:100690000BBE0F900FBE0F901F9018951F920F92D8
:1006A0000FB60F9211240BB60F922F933F938F9397
:1006B0009F93EF93FF932091B5033091B603809100
:1006C000B7039091B8032817390731F48091C90016
:1006D0008F7D8093C90014C0E091B703F091B803F7
:1006E000EB58FC4F20818091B7039091B80301969D
:1006F0008F7399279093B8038093B7032093CE000C
:10070000FF91EF919F918F913F912F910F900BBE91
:100710000F900FBE0F901F9018951F920F920FB65B
:100720000F9211240BB60F922F933F938F939F93A9
:10073000EF93FF9320915F043091600480916104F6
:10074000909162042817390731F48091C1008F7DA0
:100750008093C10014C0E0916104F0916204E15EF5
:10076000FB4F2081809161049091620401968F7308
:10077000992790936204809361042093C600FF91AF
:10078000EF919F918F913F912F910F900BBE0F9002
:100790000FBE0F901F9018951F920F920FB60F92D9
:1007A00011240BB60F922F933F934F935F936F9348
:1007B0007F938F939F93AF93BF93EF93FF9380911A
:1007C000300182FD07C08091360165E672E00E942B
:1007D000020202C080913601FF91EF91BF91AF916B
:1007E0009F918F917F916F915F914F913F912F9149
:1007F0000F900BBE0F900FBE0F901F9018951F9279
:100800000F920FB60F9211240BB60F922F933F93B6
:100810004F935F936F937F938F939F93AF93BF9308
:10082000EF93FF938091D00082FD07C08091D600A6
:100830006FE073E00E94020202C08091D600FF9137
:10084000EF91BF91AF919F918F917F916F915F9148
:100850004F913F912F910F900BBE0F900FBE0F90B5
:100860001F9018951F920F920FB60F9211240BB67E
:100870000F922F933F934F935F936F937F938F9339
:100880009F93AF93BF93EF93FF938091C80082FD36
:1008900007C08091CE0069EB73E00E94020202C0A3
:1008A0008091CE00FF91EF91BF91AF919F918F9179
:1008B0007F916F915F914F913F912F910F900BBE60
:1008C0000F900FBE0F901F9018951F920F920FB6AA
:1008D0000F9211240BB60F922F933F934F935F9378
:1008E0006F937F938F939F93AF93BF93EF93FF93F8
:1008F0008091C00082FD07C08091C60063E674E06D
:100900000E94020202C08091C600FF91EF91BF9148
:10091000AF919F918F917F916F915F914F913F9197
:100920002F910F900BBE0F900FBE0F901F90189538
:100930001F920F920FB60F9211242F933F938F9314
:100940009F93AF93BF9380911D0290911E02A0913F
:100950001F02B091200230911C0223E0230F2D379B
:1009600020F40196A11DB11D05C026E8230F0296B3
:10097000A11DB11D20931C0280931D0290931E02A5
:10098000A0931F02B0932002809118029091190247
:10099000A0911A02B0911B020196A11DB11D809376
:1009A000180290931902A0931A02B0931B02BF91F0
:1009B000AF919F918F913F912F910F900FBE0F900C
:1009C0001F901895CF92DF92EF92FF92E7EAF4E042
:1009D0001382128288EEC82E83E0D82EE12CF12CEF
:1009E000C482D582E682F78264E072E0718360831C
:1009F00083E694E0958784878FE194E097878687E4
:100A000085EC90E0918B808B84EC90E0938B828BD3
:100A100080EC90E0958B848B81EC90E0978B868BBB
:100A200082EC90E0918F808F86EC90E0938F828FA4
:100A300044E0448F33E0358F27E0268F95E0978F91
:100A400081E080A3EDEFF3E013821282C482D582AD
:100A5000E682F78271836083A9EBB3E0B587A48750
:100A6000A5E7B3E0B787A687ADECB0E0B18BA08B6C
:100A7000ACECB0E0B38BA28BA8ECB0E0B58BA48B50
:100A8000A9ECB0E0B78BA68BAAECB0E0B18FA08F39
:100A9000AEECB0E0B38FA28F448F358F268F978F47
:100AA00080A3E3E5F3E013821282C482D582E6825A
:100AB000F78271836083AFE0B3E0B587A487ABECC6
:100AC000B2E0B787A687A5EDB0E0B18BA08BA4ED0F
:100AD000B0E0B38BA28BA0EDB0E0B58BA48BA1ED01
:100AE000B0E0B78BA68BA2EDB0E0B18FA08FA6EDE2
:100AF000B0E0B38FA28F448F358F268F978F80A35E
:100B0000E9EAF2E013821282C482D582E682F78299
:100B10007183608365E672E07587648761E272E0E5
:100B20007787668765E371E0718B608B64E371E0C2
:100B3000738B628B60E371E0758B648B61E371E0B2
:100B4000778B668B62E371E0718F608F66E371E093
:100B5000738F628F448F358F268F978F80A3FF907E
:100B6000EF90DF90CF900895CF93DF93CDB7DEB7AE
:100B7000A1970FB6F894DEBF0FBECDBF789484B5B1
:100B8000826084BD84B5816084BD85B5826085BD89
:100B900085B5816085BD80916E00816080936E0017
:100BA0001092810080918100826080938100809109
:100BB00081008160809381008091800081608093BA
:100BC00080008091B10084608093B1008091B0007A
:100BD00081608093B0008091910082608093910049
:100BE000809191008160809391008091900081605C
:100BF000809390008091A10082608093A1008091F9
:100C0000A10081608093A1008091A0008160809309
:100C1000A0008091210182608093210180912101B7
:100C20008160809321018091200181608093200167
:100C300080917A00846080937A0080917A0082604B
:100C400080937A0080917A00816080937A0080910D
:100C50007A00806880937A001092C10004E010E06E
:100C6000802FF801E452FE4F9491F801EA56FE4FAE
:100C700024912223D1F030E0220F331FF901EE59E5
:100C8000FE4FA591B491F901E458FE4F459154915E
:100C90003FB7F8942C91E92FE095922F9E239C93D7
:100CA000DA019C91E923EC933FBF60E00E9444028B
:100CB0000F5F1F4F0830110599F6E091BB04F091CA
:100CC000BC0481E090E09C010090C70402C0220FA8
:100CD000331F0A94E2F72083E091B704F091B8043F
:100CE0001082E091B904F091BA042FEC20831092A5
:100CF000C804E091BD04F091BE0440819C010090C5
:100D0000C30402C0220F331F0A94E2F7242B20836E
:100D1000E091BD04F091BE0440819C010090C404A8
:100D200002C0220F331F0A94E2F7242B2083E091A4
:100D3000BD04F091BE0440819C010090C50402C036
:100D4000220F331F0A94E2F7242B2083E091BD0485
:100D5000F091BE0420810090C60402C0880F991F44
:100D60000A94E2F78095822380838AE0482E512CF2
:100D7000612C712C01E3AA24A394B12C87EA94E09E
:100D80000E94F20118161906CCF746E050E060E127
:100D900072E087EA94E00E941C0287EA94E00E94D5
:100DA000B60110ED180F1A3068F09FEB980F9630CF
:100DB00010F419EC06C09FE9980F963008F04DC06A
:100DC00019EA180FC12E012E000CDD08EE08FF08ED
:100DD00019A24E01B1E28B0E911CC701B601A3010D
:100DE00092010E943D078C2DEAE02E9F801911246C
:100DF000F1E08F1A91088A3014F4805D01C0895C9B
:100E0000D4018C9369017A01232B242B252B29F7FC
:100E1000C4010E94BE026DE087EA94E00E9469016D
:100E20006AE087EA94E00E94690111160CF0A6CFEF
:100E3000E12CF12CB5010E2C01C0660F0A94EAF7E3
:100E4000612384E08E0D0E944402BFEFEB1AFB0A7F
:100E5000E4E0EE16F10471F791CF6DE287EA94E0D9
:100E60000E94690119A208A3CE0180960E94BE02C9
:100E70001FEFD1CFF8940C946707A1E21A2EAA1B9A
:100E8000BB1BFD010DC0AA1FBB1FEE1FFF1FA2173A
:100E9000B307E407F50720F0A21BB30BE40BF50B37
:100EA000661F771F881F991F1A9469F760957095C0
:100EB000809590959B01AC01BD01CF010895EE0F87
:100EC000FF1F881F8BBF0790F691E02D1994F894AF
:020ED000FFCF52
:100ED2000000000069011C02F201B601D601AB015B
:080EE200526561643A20000032
:00000001FF
