:100000000C9435010C9466010C9466010C94660105
:100010000C9466010C9466010C9466010C946601C4
:100020000C9466010C9466010C9466010C946601B4
:100030000C9466010C9466010C9466010C946601A4
:100040000C9466010C9466010C9466010C94660194
:100050000C9466010C9466010C9466010C94BA042D
:100060000C9466010C9487040C94AF030C94660105
:100070000C9466010C9466010C9466010C94660164
:100080000C9466010C9466010C9466010C94660154
:100090000C9454040C9470030C9466010C94660147
:1000A0000C9466010C9466010C9466010C94660134
:1000B0000C9466010C9466010C9466010C94660124
:1000C0000C9466010C9466010C9466010C94210456
:1000D0000C9431030C9466010C94EE030C94F20220
:1000E0000C9466016F02720265026902A90276022F
:1000F0007A028002840288028E0292029602A9028B
:100100009C02A002A4020C946F020C94A9020C940D
:1001100072020C9491010C9492020C941A020C94A9
:10012000FE010C9404050C947A020C94DE010C94EC
:1001300065020C9469020C9476020C949C020C9457
:10014000D3010C9488020C94A4020C9496020C9493
:100150008E020C94A0020C9480020C9468010C9402
:10016000840200002100240027002A002D00300016
:10017000330001010000040107010A010000220010
:10018000250028002B002E00310034000201000061
:10019000050108010B010505050507050808080804
:1001A000020202020A0A080804040404010101010F
:1001B000010101010303030303030303040707070A
:1001C0000C0C0C0C0C0C0C0C0202020206060606AF
:1001D000060606060B0B0B0B0B0B0B0B010210207C
:1001E000200808102040102040800201020108046D
:1001F0000201010204081020408080402010080401
:100200000201800402018040201008040201080459
:10021000020101020408102040800102040810209D
:1002200040800000090A02080B0C0D0706030401B8
:1002300000000000000000000000000000000000BE
:10024000000000000000000000000000000011108D
:100250000F0000000000000000000000000000008F
:100260000000000000000000040511241FBECFEFB5
:10027000D1E2DEBFCDBF00E00CBF12E0A0E0B2E0F3
:10028000E0E0FEE000E00BBF02C007900D92A0315D
:10029000B107D9F724E0A0E1B2E001C01D92A13C72
:1002A000B207E1F711E0C5E3D1E000E006C0219715
:1002B0000109802FFE010E94F606C433D10780E0B9
:1002C0000807A9F70E94D6050C94F3060C940000C9
:1002D000CF92DF92EF92FF920F931F93CF93DF9312
:1002E0006C01EB017B01E40EF51E00E010E0CE1581
:1002F000DF0561F06991D601ED91FC910190F081EB
:10030000E02DC6011995080F191FF1CFC801DF9123
:10031000CF911F910F91FF90EF90DF90CF900895B4
:1003200008950F931F93CF93DF93FC01A685B785A4
:100330008D01005C1F4FE8018881998101968F73C0
:100340009927AD014E5B5F4FEA012881398128175B
:100350003907D1F3E80128813981A20FB31F6C93CB
:10036000A685B785A05CBF4F11969C938E93A689F6
:10037000B7892C9181E090E0078C02C0880F991F0B
:100380000A94E2F7822B8C9381E081A30488F5899B
:10039000E02D80818064808381E090E0DF91CF91C7
:1003A0001F910F910895FC0181A1882329F0A48950
:1003B000B5898C9186FFFBCF11A20895FC01A4851D
:1003C000B585FD01E05CFF4F20813181329680814F
:1003D00091812817390779F080819181A80FB91F81
:1003E0008C91208131812F5F3F4F2F7333273183D1
:1003F000208390E008958FEF9FEF0895DC011C9615
:10040000ED91FC911D97DF01A05CBF4F2D913C91B8
:10041000119712968D919C9111972817390739F0F1
:100420008D919C91E80FF91F808190E008958FEFE6
:100430009FEF0895FC0124853585F901E05CFF4FAD
:1004400080819181329620813181821B930B8F7341
:1004500099270895FB01E05CFF4F20813181DB018A
:10046000AE5BBF4F4D915C912F5F3F4F2F73332792
:100470004217530741F040815181DB01A40FB51FA2
:100480008C93318320830895362F90E0FC01EE5D3C
:10049000FD4F4491FC01E452FE4F2491FC01EA56C9
:1004A000FE4F9491992309F468C0442309F451C084
:1004B00050E0FA013197E131F10508F04AC0882790
:1004C000EE58FF4F8F4F0C94F606809180008F7787
:1004D00003C0809180008F7D809380003AC084B5F6
:1004E0008F7702C084B58F7D84BD33C08091B0000A
:1004F0008F7703C08091B0008F7D8093B00029C0BA
:10050000809190008F7707C0809190008F7D03C00D
:1005100080919000877F809390001BC08091A00005
:100520008F7707C08091A0008F7D03C08091A000CD
:10053000877F8093A0000DC0809120018F7707C036
:10054000809120018F7D03C080912001877F80935F
:100550002001E92FF0E0EE0FFF1FE458FE4FA591B8
:10056000B4919FB7F894311104C08C912095282341
:1005700002C0EC912E2B2C939FBF08953FB7F894A7
:100580008091150290911602A0911702B091180265
:1005900026B5A89B05C02F3F19F00196A11DB11DDE
:1005A0003FBFBA2FA92F982F8827820F911DA11D19
:1005B000B11DBC01CD0142E0660F771F881F991F56
:1005C0004A95D1F70895CF93DF930E94BE02EB01C5
:1005D0000E94BE026C1B7D0B683E7340C8F3DF9126
:1005E000CF9108951F920F920FB60F9211240BB660
:1005F0000F922F933F938F939F93EF93FF932091AD
:10060000590230915A0280915B0290915C02281746
:10061000390731F4809131018F7D8093310114C00D
:10062000E0915B02F0915C02E75EFD4F20818091DA
:100630005B0290915C0201968F73992790935C0204
:1006400080935B0220933601FF91EF919F918F91F0
:100650003F912F910F900BBE0F900FBE0F901F90E8
:1006600018951F920F920FB60F9211240BB60F928E
:100670002F933F938F939F93EF93FF9320910303C7
:1006800030910403809105039091060328173907E0
:1006900031F48091D1008F7D8093D10014C0E0911E
:1006A0000503F0910603ED53FD4F20818091050372
:1006B0009091060301968F73992790930603809378
:1006C00005032093D600FF91EF919F918F913F9169
:1006D0002F910F900BBE0F900FBE0F901F9018958B
:1006E0001F920F920FB60F9211240BB60F922F93F9
:1006F0003F938F939F93EF93FF932091AD0330919E
:10070000AE038091AF039091B0032817390731F4FD
:100710008091C9008F7D8093C90014C0E091AF0320
:10072000F091B003E359FC4F20818091AF03909189
:10073000B00301968F7399279093B0038093AF0312
:100740002093CE00FF91EF919F918F913F912F9138
:100750000F900BBE0F900FBE0F901F9018951F9219
:100760000F920FB60F9211240BB60F922F933F9357
:100770008F939F93EF93FF932091570430915804E8
:100780008091590490915A042817390731F48091C7
:10079000C1008F7D8093C10014C0E0915904F09195
:1007A0005A04E95EFB4F20818091590490915A04CC
:1007B00001968F73992790935A048093590420933C
:1007C000C600FF91EF919F918F913F912F910F90D4
:1007D0000BBE0F900FBE0F901F9018951F920F9297
:1007E0000FB60F9211240BB60F922F933F934F9396
:1007F0005F936F937F938F939F93AF93BF93EF9389
:10080000FF938091300182FD07C0809136016DE534
:1008100072E00E942A0202C080913601FF91EF919E
:10082000BF91AF919F918F917F916F915F914F9108
:100830003F912F910F900BBE0F900FBE0F901F9006
:1008400018951F920F920FB60F9211240BB60F92AC
:100850002F933F934F935F936F937F938F939F93C8
:10086000AF93BF93EF93FF938091D00082FD07C0B9
:100870008091D60067E073E00E942A0202C0809156
:10088000D600FF91EF91BF91AF919F918F917F9192
:100890006F915F914F913F912F910F900BBE0F90F1
:1008A0000FBE0F901F9018951F920F920FB60F92C8
:1008B00011240BB60F922F933F934F935F936F9337
:1008C0007F938F939F93AF93BF93EF93FF93809109
:1008D000C80082FD07C08091CE0061EB73E00E94EA
:1008E0002A0202C08091CE00FF91EF91BF91AF919B
:1008F0009F918F917F916F915F914F913F912F9138
:100900000F900BBE0F900FBE0F901F9018951F9267
:100910000F920FB60F9211240BB60F922F933F93A5
:100920004F935F936F937F938F939F93AF93BF93F7
:10093000EF93FF938091C00082FD07C08091C600B5
:100940006BE574E00E942A0202C08091C600FF910C
:10095000EF91BF91AF919F918F917F916F915F9137
:100960004F913F912F910F900BBE0F900FBE0F90A4
:100970001F9018951F920F920FB60F9211242F936C
:100980003F938F939F93AF93BF9380911102909168
:100990001202A0911302B09114023091100223E0D0
:1009A000230F2D3720F40196A11DB11D05C026E8A7
:1009B000230F0296A11DB11D2093100280931102F6
:1009C00090931202A0931302B09314028091150227
:1009D00090911602A0911702B09118020196A11DE4
:1009E000B11D8093150290931602A0931702B09345
:1009F0001802BF91AF919F918F913F912F910F90CE
:100A00000FBE0F901F901895CF92DF92EF92FF923A
:100A1000EFE9F4E01382128288EEC82E83E0D82E2C
:100A2000E12CF12CC482D582E682F78264E072E088
:100A3000718360838BE594E09587848787E194E0F8
:100A40009787868785EC90E0918B808B84EC90E093
:100A5000938B828B80EC90E0958B848B81EC90E083
:100A6000978B868B82EC90E0918F808F86EC90E064
:100A7000938F828F44E0448F33E0358F27E0268FB9
:100A800095E0978F81E080A3E5EFF3E01382128277
:100A9000C482D582E682F78271836083A1EBB3E0E2
:100AA000B587A487ADE6B3E0B787A687ADECB0E025
:100AB000B18BA08BACECB0E0B38BA28BA8ECB0E018
:100AC000B58BA48BA9ECB0E0B78BA68BAAECB0E0F9
:100AD000B18FA08FAEECB0E0B38FA28F448F358F73
:100AE000268F978F80A3EBE4F3E013821282C482F7
:100AF000D582E682F78271836083A7E0B3E0B58791
:100B0000A487A3ECB2E0B787A687A5EDB0E0B18BD0
:100B1000A08BA4EDB0E0B38BA28BA0EDB0E0B58BC1
:100B2000A48BA1EDB0E0B78BA68BA2EDB0E0B18FA6
:100B3000A08FA6EDB0E0B38FA28F448F358F268FA4
:100B4000978F80A3E1EAF2E013821282C482D582F9
:100B5000E682F782718360836DE572E07587648752
:100B600069E172E07787668765E371E0718B608B7E
:100B700064E371E0738B628B60E371E0758B648B6F
:100B800061E371E0778B668B62E371E0718F608F58
:100B900066E371E0738F628F448F358F268F978F56
:100BA00080A3FF90EF90DF90CF900895789484B564
:100BB000826084BD84B5816084BD85B5826085BD59
:100BC00085B5816085BD80916E00816080936E00E7
:100BD00010928100809181008260809381008091D9
:100BE000810081608093810080918000816080938A
:100BF00080008091B10084608093B1008091B0004A
:100C000081608093B0008091910082608093910018
:100C1000809191008160809391008091900081602B
:100C2000809390008091A10082608093A1008091C8
:100C3000A10081608093A1008091A00081608093D9
:100C4000A000809121018260809321018091210187
:100C50008160809321018091200181608093200137
:100C600080917A00846080937A0080917A0082601B
:100C700080937A0080917A00816080937A008091DD
:100C80007A00806880937A001092C100C4E0D0E0BE
:100C90008C2FFE01E452FE4F9491FE01EA56FE4F66
:100CA00024912223D1F030E0220F331FF901EE59B5
:100CB000FE4FA591B491F901E458FE4F459154912E
:100CC0003FB7F8942C91E92FE095922F9E239C93A7
:100CD000DA019C91E923EC933FBF60E00E9444025B
:100CE0002196C830D105A1F6E091B304F091B40487
:100CF00081E090E09C010090BF0402C0220F331FEE
:100D00000A94E2F72083E091AF04F091B0041082DE
:100D1000E091B104F091B2042FEC20831092C00452
:100D2000E091B504F091B60440819C010090BB04B1
:100D300002C0220F331F0A94E2F7242B2083E09194
:100D4000B504F091B60440819C010090BC0402C03F
:100D5000220F331F0A94E2F7242B2083E091B5047D
:100D6000F091B60440819C010090BD0402C0220FA6
:100D7000331F0A94E2F7242B2083E091B504F0910D
:100D8000B60420810090BE0402C0880F991F0A9407
:100D9000E2F78095822380838FE994E00E941A0213
:100DA000892BD1F761E084E00E94440260E085E095
:100DB0000E9444020E94E30260E087E00E94440235
:100DC0000E94E30261E085E00E94440260E084E06A
:100DD0000E9444020E94E30261E087E00E94440214
:100DE0000E94E302D9CFF8940C94FE06EE0FFF1F89
:100DF000881F8BBF0790F691E02D1994F894FFCFD0
:100E000000000000910168011A02DE01FE01D30119
:00000001FF
